:20E0000038B50D4604460AF05BFE07482168016061684160A16881600BF0A7F90BF0B5F952
:20E0200028460DF07FFF38BD7C4400200AF048BE00BF00BF0BF099B900BF00BF0BF0A5B980
:0CE0400000BF00BF0DF06EBF00BF00BFAE
:20E04C006E490860704780B5002200920B4601226B4900F0BAF802BD80B50A88172A05DB84
:20E06C00002200920B4603226649F2E7022002BD38B50D460446A878012818BF02280DD14F
:20E08C00288800281CBF6868002807D002210BF06DFA00902B4605225B4931E0022032BD7F
:20E0AC0038B500F01EF81CBF6868002806D000F036F800902B460722544921E0022032BDC1
:20E0CC0038B500F00EF81CBF6868002807D002210BF04CFA00902B4609224D4910E002206F
:20E0EC0032BD0D46044628880028704738B500F024F808B100F013F800902B460B22454990
:20E10C00204600F062F832BD38B500F016F808B100F005F800902B460D223F49F0E7012112
:20E12C000BF024BA38B500F008F808B1FFF7F7FF00902B460F223949E2E70D46044668688E
:20E14C00704738B5FFF7CDFF1CBF6868002807D002210BF00BFA00902B4611223049CFE71D
:20E16C00022032BD80B5002100910023132270E738B50D460446A86810B105210BF0F6F981
:20E18C0000902B4617222749BAE780B500210091002319225DE738B5FFF7CFFF10B1032109
:20E1AC000BF0E4F900902B461B2209E038B5FFF7C4FF10B103210BF0D9F900902B461D22BC
:20E1CC001949204600F049FA32BDF8B504460698009015461E46204600F03FFA07000AD1F4
:20E1EC0006480268100006D0012D04BF3078451CE9B2204690473846F2BD000048430020CB
:20E20C0093E20000CFE2000001E30000B9E3000047E4000087E4000001E500003BE50000B0
:20E22C0041E50000A9E500001DE60000F8B505460C46AF892FB3AA68167830060FD50D2FC1
:20E24C001FDB0C3FBFB2D01900903B466888012105F093F8002814BF0220012000E0002032
:20E26C002070B00900F00100607006F03F00A070781EA08080B208B1A868401CA060002016
:20E28C00F2BD0120F2BD0A7802704A8842704A88120A8270097918E104290AD1017811701E
:20E2AC008378417801EB03215180C0781071002070470420704705E0022B00D1D5E0042096
:20E2CC00704700BF0A8802700988090A417002207047022906D10178407801EB00201080BB
:20E2EC000020704704207047E6E0042B00D1F4E0042070478A7802708878098801280CBFF2
:20E30C00042012204843401C80B2704710B50B001CD00378491E012B89B207D14B0801EBAF
:20E32C0093739B08B1EB830410D108E0022B0DD1122391FBF3F3122404FB131131B999B2FC
:20E34C0021B110F8011B917013800FE1042010BD10B50C46022200F047F8001D611D0BF046
:20E36C005FF92089801D80B210BD70B51E46062E144619DB049D2078617800EB0120288023
:20E38C000222A078E17800EB01206880211D02202871681D0BF044F9B01F288180B200B1D7
:20E3AC00A01DE860002070BD042070BD08888004000C70474B0801EB93739B08B1EB8303CD
:20E3CC0003D1890801D011809AE00420704710B50C4600F009F8611D2279001D0BF020F9C3
:20E3EC002079001D80B210BD218801702188090A4170618881706188090AC170704710B552
:20E40C00029C062B104612D1022121714278017801EB02212180C278817801EB022161802D
:20E42C00011D2279601D0BF0FBF8002010BD142B08BF1021E9D0042010BD7CE010B50B00B2
:20E44C000BD003785380491E022B89B205DB91FBF3F403FB141101B986E0042010BD31E719
:20E46C00022B00D101E0042070471078517800EB01200099088000207047088870473CE01E
:20E48C0010B5022B0FDB029C207261721078517800EB01202080981E608080B200B1901C6F
:20E4AC006060002010BD042010BDB2E009B9002070470420704700BF0A8802700A88120A3B
:20E4CC0042704A8882704988090AC17004207047042B00D101E00420704700981178537822
:20E4EC0001EB032101809178D27801EB02214180002070470888704700BF118001B9002014
:20E50C0050600020704788884004000C704703EBD3704008B3EB400007D15908022904DBB7
:20E52C00009881800260002070470420704708887047E2E700BF4A8809880270514389B2AF
:20E54C00481C80B2704710B50B000BD003785380491E042B89B205DB91FBF3F403FB141122
:20E56C0001B901E0042010BD1480401C5060002010BD14E010B5042B0EDB00F062F8D4780F
:20E58C00917801EB04214180191F818089B201B1111D8160002010BD042010BD00BF0A8830
:20E5AC0002700A88120A42704A8882704A88120AC2708888001D80B2704710B5042913DBA3
:20E5CC0003784478091F03EB04231380C4788378918003EB042389B2002914BF001D002057
:20E5EC0090605380002010BD042010BD0978017001207047012B04D10099107808700020EA
:20E60C0070470420704709B9002070470420704700BF0A8802700A88120A42704888801C59
:20E62C0080B2704710B5022B09DB00F00AF8991E418089B201B1911C4160002010BD042059
:20E64C0010BD02981178547801EB04210180704709B900207047042070472DE9F04784B0B4
:20E66C0080460C9D0C4691469A4655B9172004F01DFB0126050005D11324204604B0BDE8CD
:20E68C00F08700262846012700F8019B14B15146A047471C5FEA09600DD51021404604F0C2
:20E6AC00FAFBD8B9BFB2EA193946284604F018FE044668B90C370420ADF800000195ADF8AB
:20E6CC0008706946404603F0B8FD00280446D4D0002ED2D028460AF076FFCEE71924F7E746
:20E6EC0030B5022918BF102985B00446154603D1022B18BF102B01D0002017E00A469A42ED
:20E70C0003D129460AF0D5FF10E01029694606D1284600F00DF810226946204604E000F0AF
:20E72C0007F81022694628460AF0C3FF05B030BD38B504000D4618BF002D0BD010220FF2CB
:20E74C00A80128460AF06CFF2078287360786873012032BD002032BD30B504460D0018BF19
:20E76C00002C85B014D01022214668460AF058FF68460021818110220FF26C010AF099FFAD
:20E78C00012805D1207B2870607B6870012000E0002005B030BD38B504464FF6FE70844215
:20E7AC000D460BD0172D09DB03F0DDFD2946884204D32046BDE8344004F09BBB012032BD41
:20E7CC0080B54FF6FE71884205D004F0A0FB010005D1172002BDBDE8014003F0C4BD02BD30
:20E7EC007047002070470000FB349B5F800000800010000000000000282808DA4FF6FF725E
:20E80C00914204D0CA4A22F810100020704702207047282803DAC64931F8100070474FF6D6
:20E82C00FF70704770B504460D46C24E1C22002130460AF0F3FE347775770DF037FC01004C
:20E84C000EBF012100211220317070BD10B5B94CE160A060102200210AF01EFF012801D12C
:20E86C00A0680CE010BD10B5B24C6060102200210AF012FF012801D1606800E010BDBDE8D5
:20E88C001040102104F0DCBCAA48406870472DE9FC41A84D0446002695F81E80042C0F46A6
:20E8AC0024DA2878032818BF102054D101F088FA28B900F047F910B900F046F908B11220F0
:20E8CC0049E0012C18BF022C1DD1BFB10622002168460AF0A3FE00F040F838B90622FF2180
:20E8EC0068460AF09BFE00F038F808B1022032E00622394668460AF093FE0BE0062168461E
:20E90C0004F09EFC06E0032C04D16868694604F053FB0646884FAC77042138780AF0A8FCF9
:20E92C00002028849EB9ACB1684600F05BF8064668B9032C0ED11D20FFF76BFF288448B19D
:20E94C0038784EF6602204210AF0AAFC02E00EB185F81E803046BDE8F681062269463846CD
:20E96C000AF0A7BE70B5044600252000714E05D121B1062206F110000AF052FE30780128C7
:20E98C000CD10125200004D10220307006F034FD04E000203070204600F0A8F8284670BD55
:20E9AC0038B50024E0B10578624A290006D14178837801EB0321D182C078107610780228F9
:20E9CC000ED10124280006D103201070117ED08A03F0C3FC01E000201070284600F086F88D
:20E9EC00204632BD10B5534CA17F81B10146062204F124000AF014FEA07F04F1240100F043
:20EA0C0008F804F12400BDE810400DF053BB002010BD79B102000DD04A79012808BF42F0F6
:20EA2C00C00006D002F03F0203284A7102D142F0400048717047010018BF01210846704767
:20EA4C0070B53C4D0446287FFF2815D00A200AF0F3FD060010D0D020307074700820B07049
:20EA6C000622A87FF07005F12401301D0AF0D8FD287F31460AF0D9FEE87F01280FD12F48CE
:20EA8C00006818B18068010018BF8047BDE87040294800784EF6602204210AF001BC70BDA5
:20EAAC002448806870472348C068006870472148C1680A68521C0A60007FFF281CBF4FF4ED
:20EACC0080410AF0F5BE70471A48807F704738B50446184D05F110000DF0F0FA05F110005E
:20EAEC001CB9A97F09B105F1240032BD70B5114D0446287FFF2819D00E200AF09DFD0600FE
:20EB0C0014D0D020307074700020B070062205F11001F01C0AF084FDE88A70813146287E1B
:20EB2C003073287FBDE870400AF07FBE70BD0000BC44002090440020484500204C45002054
:20EB4C0004F056BA264800E02648006800B101207047010001D0172801DBFF2801D10120F1
:20EB6C007047002070472DE9F04D0D4693460024BBF1200F80461F462C7003DB0020BDE813
:20EB8C00F08D0419E0B25845F8D2E4B23E5D641C002EF3D0E4B231198B45EFDB17F804A007
:20EBAC005046FFF7D6FF641C0028E7D0701EC2452870E6D1E4B23819E1E70B490A781043CD
:20EBCC000870704708490A7832EA0000087006D10648006818B14068010018BF00477047BF
:20EBEC00504300204C430020544300205C4300202DE9F04104468846122740464FF6FE715F
:20EC0C0088421646DFF8845908D1A86950B30268100027D041462046904720E04FF6FF7137
:20EC2C00884212D1A86938B10268100004D0414620469047070005D03146204600F0DAFA92
:20EC4C0007000FD12C706E700CE004F0F6F848B10078A04205D1314640460DF033FA0746DC
:20EC6C0000E003273846BDE8F08110B5044684B000F072F808B9022029E02088012104F0A3
:20EC8C000AF908B9142022E0208804F015F9042812D1DFF8F80881894FF6FF72914218BF74
:20ECAC00112014D12188818161888180A188C180E1880181218941810020029001902089F0
:20ECCC000090E388A2886188208806F0EBFB04B010BD30B5044685B02088402104F0DBF8E1
:20ECEC00002836D02088ADF8040000F035F8002500281CBFA07A002807D10021684600F06B
:20ED0C00CEF9A07AF0B102251CE091208DF800008DF803503E208DF80100012106208DF883
:20ED2C000200A088ADF808006088ADF80600E088ADF80A002089ADF80C008DF80350684666
:20ED4C0000F0ADF920880022402104F042F8284600E0122005B030BD2389E288A18860886F
:20ED6C0006F0CABA70B50C46DFF824180978022918BF0129154601D1122070BD0DB9022062
:20ED8C0070BD04F05AF8060001D1142070BD1CB1307940F0020030711022294606F11800C2
:20EDAC000AF03EFC2869B062002070BDF8B506000C4601D10220F2BD308804F03EF8050094
:20EDCC0001D11420F2BDDFF8C8070078022818BF012803D0A87C082802D10CB11220F2BD92
:20EDEC00DFF8A877786908B11120F2BDB0200CF0E4FF786108B91320F2BDB02200F0C2FAEE
:20EE0C00786931884180A022311D001D0AF008FC796902200870A87C7969328808280CBF29
:20EE2C00012000200B1DDFF86C17097804F014FC06461CB12146284604F0E7FD300018BFB1
:20EE4C0000F055FA3046F2BD38B504460D4603F0F4FF08B9142032BD8DF800506946204604
:20EE6C0004F006FD32BD38B50022A0B101230624E4B2051915F8015C303D0A2D0BD203FB55
:20EE8C0005220A256B43641EE5B2002DF0D11046BDE8344001E0022032BD30B505460C4678
:20EEAC0085B0204603F0C9FF08B9122019E0DFF8E806854228BF022013D210220021684689
:20EECC000AF0ACFB280A8DF801008DF80050280C8DF802002146280E8DF80300684604F076
:20EEEC0002FC05B030BDF8B50546DFF8A4060078022818BF01280C461F4601D11220F2BDE1
:20EF0C000FB90220F2BD284603F097FF060001D11420F2BDF06A08B10CF051FF1C21384680
:20EF2C000AF0E0FE0100F16201D11320F2BDB07C08280AD1069840B1887E009001F1120382
:20EF4C000A8A284604F08CFD00E00020317941F004010CB141F002013171F2BD2DE9F041BD
:20EF6C000D4603F06AFF04001FD0A56200F007FA0546C0B200B92578A66A94F80580102087
:20EF8C000AF05AFB070010D0D0203870062200207870A11D0920B87087F80380381D0AF007
:20EFAC003FFBFE603946E8B21EE0BDE8F0812DE9F04104460D4690461F460E200AF03CFB02
:20EFCC0006000FD0D020307006220020707041460C20B070B580B01D0AF022FB377331467B
:20EFEC00204601E0BDE8F081BDE8F0410AF01DBCF0B50C0087B050D0A079DFF890650028EA
:20F00C0030690CBF0825042508B9DFF890050778042D08D1DFF88805006820B14168080026
:20F02C001CBF00208847207D059004F10803608A04903946208A0390E08902900195A088D5
:20F04C000090E279E07800F071F8E07880B9172004900122E089039002950020019004F150
:20F06C0008000090E379A188384603F065FEE070306908B100F056F9307801000DD0717843
:20F08C0000F0B8F848B1E378312B04D0A2883178184600F079F80020307007B0F0BD10B5C5
:20F0AC00044684B0A08851B1002102910191A189009163892289E18806F0B5F91FBD04B067
:20F0CC00BDE810403B2106F0B0B970B504460026A08803F0B2FE18B10678A08803F05FFE55
:20F0EC00DFF8A8542878010007D0864205D1697800F080F848B100202870300005D0A37900
:20F10C00A288A078314600F03FF8686908B100F0EEF8A08803F0D0FE042802BFA088A98973
:20F12C00884204BF4FF6FF70A88170BD2DE9F0410646884617461C4616200AF07DFA050060
:20F14C0020D0D02028706E700520A870EF702CB106222146281D0AF063FA04E0062200217C
:20F16C00281D0AF05BFA069868812946079828730898E881099828820A9868820B9828759F
:20F18C00404631E7BDE8F081F8B504460D4616461F4608200AF050FA48B1D0210170447029
:20F1AC00062181708680877101462846EDE0F1BD2DE9F04105460E46174698460C200AF0B6
:20F1CC003BFA040014D0304603F037FE08B9DFF8CC030078D021217065700721A170E570A4
:20F1EC00A680E780A4F80880069961812146FBE6BDE8F08110B50C4603F034FE28B1408896
:20F20C002146BDE810400CF05DBF122010BD2DE9F84F0746894692461C46484603F00DFE30
:20F22C005FEA000B1EBFDFF86453696900295CD051F8A42F182002B134208A6802B1143098
:20F24C0004B11C30496801B1173080B20AF0F4F906004AD0182200F095F800F090F85FEA46
:20F26C00000808BF9BF80080D020307077700A20B070A6F8049086F806A006F118076969A1
:20F28C00D1F8A40040B1B7603846D1F8A41000F11C071C220AF0C4F96969D1F8AC0040B1B1
:20F2AC00F7603846D1F8AC1000F1140714220AF0B7F93CB13761384600F11C071C22214640
:20F2CC000AF0AEF96869D0F8A81031B177611722D0F8A81038460AF0A3F931465FFA88F061
:20F2EC000AF0A3FABDE8F14F01E0BDE8F18F10B5A64C6069A8B1D0F8A40008B10CF05FFD2A
:20F30C006069D0F8A80008B10CF059FD6069D0F8AC0008B10CF053FD60690CF050FD002029
:20F32C00606110BD10B5994C206940B10CF047FD002020610420BDE81040FFF743BC10BD53
:20F34C00F8B504460D46284603F077FD060015D000F015F8070008BF377806200AF06CF998
:20F36C0006000BD0062200F00DF8D020307074700E20B070B5803146F8B206E0F1BD262091
:20F38C00FFF747BA00210AF049B9BDE8F4400AF04CBA2DE9F84305460E46174698463046D3
:20F3AC0003F04BFD5FEA00091ED010200AF044F9040019D01022FFF7E5FFFFF7E0FF08B9D0
:20F3CC0099F80000D021217065700F21A170A680277284F80980C0B20899A1720999E17219
:20F3EC000A99E160214631E0BDE8F1832DE9F84304468846914603F020FD070024D014200D
:20F40C000AF01AF905001FD0FFF7B9FF060008BF3E78D0202870062200206870B91D0B2005
:20F42C00A870E81C0AF0FCF86C8118F00101C5F8109018BF01212973F0B218F0020118BF49
:20F44C0001216973294601E0BDE8F183BDE8F4430AF0EBB92DE9F14F90460D4699464046DB
:20F46C0003F0EBFC07000A9EDDF82CA0DDF830B00D9C3ED09DF8000000283AD1387940F041
:20F48C0010005FEA49714CBF40F0020000F0FD00002E08BFBAF1000F08D1BBF1000F08BF19
:20F4AC00002C03D100F0FB00387122E040F0040038713CB12069B8621022214607F1180094
:20F4CC000AF0AEF83EB135B9F86A08B10CF077FC1C2130460AE0BAF1000F0AD0012D08D1E1
:20F4EC00F86A08B10CF06BFC1C2150460AF0FAFBF862264D6869002842D086B1D0F8A40045
:20F50C0028B91C200CF059FC6969C1F8A4006869D0F8A40018B11C2231460AF081F8BBF168
:20F52C00000F11D06869D0F8A80028B917200CF044FC6969C1F8A8006869D0F8A80018B1FD
:20F54C00172259460AF06CF88CB16869D0F8AC0028B914200CF031FC6969C1F8AC006869A1
:20F56C00D0F8AC0018B1142221460AF059F89DF8000053464A46414601B0BDE8F04F46E654
:20F58C00BDE8F18F07490860704700000C450020AD4400204845002040420F00AC440020FB
:20F5AC004C4500205843002070B5DFF80466054630680C4608B1112070BD00F0E7F801D180
:20F5CC00122070BDDFF8EC05806800281CBF0078002801D1102070BD0C200CF0EEFB30609D
:20F5EC0040B30120FFF7E9FA306805700021306841700A222146801C0AF012F800F0CFF9B0
:20F60C00040002D000F0B4FA15E0DFF8AC050078032810D11D20FFF7FCF8DFF8A01508802E
:20F62C0048B1DFF89C0500784EF66022042109F037FE00E01324204670BDF8B50C46DFF83C
:20F64C00841509781546052211421E4627D0012CDFF8601502D18F680FB301E0CF68F7B18F
:20F66C00202D02DA2A0002D00EB90220F2BD08701F220021781C09F0D1FF2A463146781C0F
:20F68C0009F0CEFF3D70284624B1791CBDE8F4400CF01CBD791CBDE8F4400CF01BBD1220F1
:20F6AC00F2BD38B5DFF80845216809B9122032BD0978814201D0032032BDDFF8045528781B
:20F6CC00022109F0D5FDDFF8EC14002048800421287809F0CDFDDFF8E4140020088003204F
:20F6EC00216848700020BDE832400CF0F7BCF8B5044600F04BF801D11220F2BD1CB1207895
:20F70C00FFF727FA08B90220F2BD6078801C202823DA207800F0AEF908B11820F2BDDFF8D5
:20F72C0094546B680021002202E0B61C71181B685BB15E68767828B9C9B27718BF1C202F2A
:20F74C00F3DB0120B61CB218F1E7D0B238B16078D2B28018801C202801DB0B20F2BD082019
:20F76C000CF02BFB06000FD0082200F087F8686830B100E0084601680029FBD1066000E05A
:20F78C006E6074600020F2BD1320F2BDDFF83404007805210842704780B500F027F801D146
:20F7AC00002002BD00F066F900B1406802BD10B500F01CF801D1002010BDDFF8F8335968AC
:20F7CC00002201E00A46096869B14C6824788442F8D14C680868002A14BF106058600846C9
:20F7EC000CF0EDFA00E00024204610BDDFF8D4130978052211427047DFF8C8030078052133
:20F80C00084218BF00F043B91220704770B5DFF8A443A06818B10CF0D2FA0020A060E06802
:20F82C0018B10CF0CCFA0020E0600521DFF89453287808421CD004F1100000F0AEFB2878D9
:20F84C0000260521084211D000F077F9A06060B100F013F800F071F9E06010B100F00DF869
:20F86C0004E0A0680CF0ABFAA6601326304670BD002000F092FB002070BD2022002109F0C7
:20F88C00CDBE2DE9F0478288DFF82463DFF82453316842F20607D31B4FF0010805D09B1E30
:20F8AC00012B60D99B1E0FD00BE08068007841B1020003D1012048700CF010FC01006BD00F
:20F8CC0038E04FF0000867E0806807780029F8D04878BD4C012833D100F058F9DFF8E0929E
:20F8EC00B0B10120FEF795FF8246BAF1420F0AD399F800004EF66022022109F0D1FCAAF175
:20F90C003C00688010E04FF47A7000FB0AFA02E0FEF77FFF8246BAF1000F05D099F800005E
:20F92C005246022109F087FC316802204870207818B9384600F004F92EE0002020702BE074
:20F94C00207848BB032009F077FE48B1D021017047700421817001463068007809F065FF93
:20F96C0000F006F918E080680778287842F208018A420CBF01260026FF280DD0042009F04B
:20F98C005BFE010008D0D02008704F7002208870CE70287809F049FF4046BDE8F087F0B582
:20F9AC00834F386885B070B3847800F009FA28B10A20FEF72EFF05460B200DE000F0E6F82C
:20F9CC0028B10620FEF725FF0546072004E00820FEF71FFF05460920FEF71BFF06467648E5
:20F9EC000078FFF728F83968CA7A039203468A7A029228460A1D01922246C9780091314639
:20FA0C000CF070FB00E0012005B0F0BD38B5014667486B4D02682878664C01291ED16188B7
:20FA2C000B0002D0684B1B7823B112B31078BDE8324036E63C29A8BFA1F13C000CDA0221A0
:20FA4C0009F016FC60884FF47A7101FB00F22878022109F0F0FB0020608031BD4AB1594959
:20FA6C000978490705D5022109F002FC002060807CE031BD4F49496800E0096829B14A6845
:20FA8C0012788242F9D10846704700207047F8B54C48007800240521084201D11220F2BD66
:20FAAC00444DA86810B900F048F8A860E86810B900F043F8E860A86800281CBFE96800297F
:20FACC0001D11320F2BDFFF7D8FEE868FFF7D5FE6E6812E09B1C50185918401C1170716873
:20FAEC004978491C0170716809784170801C71684A78496809F094FD3668AA6896B13CB9FA
:20FB0C007068117843785F18BF1C202FE2DB01247368E9685B780A789B1C88189A18401C54
:20FB2C000A70DCE71078511C0CF0D0FAE868411C00780CF0CFFA0020F2BD20200CF03DB9D6
:20FB4C0038B51B4D0446286878B1032009F074FD48B1D021017044700321817001462868B9
:20FB6C00007809F062FE04B100E031BDBDE8314010B50F4C206840B10CF021F900202060C0
:20FB8C000120BDE81040FFF71DB810BD80B50948806858B10278431C69460120FEF7E3FFB4
:20FBAC0020B10078C00701D5012002BD002002BD5043002028450020AE440020B04400202E
:20FBCC0048450020AD440020AF44002038B504460D4603F032F9A0B1807C042801D0122024
:20FBEC0032BD3748006808B190F899502946684603F052FB334B6A460221204604F0F3FD01
:20FC0C0032BD142032BD80B52F480078400707D52E48FFF7B7FC2E494FF6FF70088001BDEF
:20FC2C00BDE802400020FFF7ADBC7CB5012403280D4610D042F21301884204D04FF6FF7103
:20FC4C0088421ED02AE0A8780C2818BF112826D100F027F823E0E878A9881D4E1A2804BF68
:20FC6C0033889942F4D06A8900922B89EA88FFF79FFAA8883188884211D14FF6FF703080EB
:20FC8C000DE068790024122809D1ADF80040297968886A4602F002FB012400E000242046AD
:20FCAC0076BD38B50A4C20884FF6FF75A84205D008490A78084902F004FB258031BD0000FA
:20FCCC0020450020BB470100AD44002044450020184500204845002010450020B249487084
:20FCEC00704710B5B04C207008F0CAFF2078BDE81040052102F08CBA7CB5AB4D28780C4629
:20FD0C00210419D509F0FFFC060084F4004411D000F058F858B93078A22806BFA348007842
:20FD2C006878FF2803D0314609F07FFD02E0304609F097FC204676BDE10709D5A86820B1CD
:20FD4C00416808001CBF0020884784F0010076BDA10709D5686820B1416808001CBF0120A0
:20FD6C00884784F0020076BD610727D5904E31880A001DD0481E308080B2E0B9FEF7E2FE57
:20FD8C0048B18C4901200870686820B1416808001CBF01208847FEF777FD694603F00CF9C3
:20FDAC006846FEF71FFE1D20FEF733FD308002E0042109F05DFA84F0040076BD002076BD10
:20FDCC0003F080B838B502780124912A4FF6FF7102D0A22A76D07BE04278052A49D00E2A77
:20FDEC0004D00F2A48D03E2A69D071E082886E4941F20905531B2DD040F6F9755B1B2FD05A
:20FE0C00DB1E31D05B1E08D09B1E022B05D9DB1E012B15D9DB1E08D05AE04968002958D0A7
:20FE2C0009680A0055D0884750E06349096800294FD04B6819004CD0014642F20E003CE025
:20FE4C008968002945D00B68190042D00146104698473BE08068411C0078FEF783FD35E0EB
:20FE6C008068FEF79DFD31E080680078FEF7E8FD2FE0FFF72AF92CE0828842F20D05531BC2
:20FE8C0013D09B1F02D09B1F0FD021E04B4B1B888B420AD04A490968D9B10A68110018D074
:20FEAC00014642F21300904710E04349096881B14B6819000DD001461046984706E000F0B7
:20FECC000AF803E00246408800F04BF8044600E00024204632BD70B505460124A87801286D
:20FEEC00014611D0022806D0032811D0062815D00A2809D032E02C48806880B34168080052
:20FF0C002DD0284688472AE02946FFF771F826E0A8882A4600F025F8044620E00E2009F09F
:20FF2C008BFB06001BD0A8880122402102F051FFD02030703146E87870701120B070A88880
:20FF4C00B080E888F0802889308168897081A889B0811648007809F068FC00E00024204642
:20FF6C0070BD70B50C46154602F0A6FF0126042804D11348006858B1026803E00E480068E0
:20FF8C0030B14268100003D02946204690470646304670BD044988607047034948607047B5
:20FFAC00084908607047000048450020AC440020B0440020AF4400202445002018450020DB
:20FFCC00584300205C430020F8B5144600250E46C24FC34B40B1012815D0042818D00628BB
:14FFEC001ED0072822D02CE0162928DA1622002107F10C0048
:020000040001F9
:2000000009F012FB3246214607F10C0009F00EFB1EE0022E19D12088388119E0082E14D168
:2000200038462146082208F08FFE11E0012E0CD1DA6903F1280104E0012E06D1DA6B03F1AC
:200040004801207800F03DF802E0182500E002252846F2BD10B50B460024A34920B1012837
:2000600008D0042809D00DE015220C31184609F0DDFA08E00889188005E01846082208F09E
:2000800063FE00E00224204610BD70470020704701460020C90706D50FF25823934810229D
:2000A000072101F01FB9704701460020C90704D58E484089002101F040B970478C490860EA
:2000C000704710B50B7884074CBF43F0020303F0FD0304064CBF43F0800303F07F03040715
:2000E0004CBF43F0080303F0F70384064CBF43F0200303F0DF030B70AA21084203D010781F
:2001000040F00C0003E018B9107800F0F300107010BD2DE9F0410F461546387802281E4602
:200120004FF000085ED1786801784078069C01EB002080B221001CBFB0F5285F0B2056D1DE
:200140004FF42851401A08D0401E1AD0401E28D0401E1ED0401E2AD044E0F86809F0C1FD34
:20016000079A80B2031B9342B8BF021B92B21019162803DA3280F86801190EE04FF00D082F
:2001800034E0F8680088022131802870000A68702CE0062030800622F968284609F046FA03
:2001A00024E001203080F868007828701EE0F868B0B108213180018829700188090A6970CA
:2001C0004188A9704188090AE970818829718188090A6971C188A971C088000AE87105E07C
:2001E000308003E0A6F800804FF001084046BDE8F0812DE9FC4B0E468046307800270228FA
:2002000091461D466BD17068017840780A9CDFF8E0B001EB002080B24FF42851401A06D028
:20022000401E29D0401E4CD0401E38D057E0F06809F057FD80B2A04204D32919162903DB61
:200240000D274DE007274BE0F3682A464946181909F0ECF92C19F068A4B2C4F1160200219A
:20026000204409F0E1F9DBF80000002838D00268100035D0002121E07CBB022DE0D199F8FB
:20028000000099F8011000EB0120F1680880DBF8000028B30268100022D001210EE0E4B908
:2002A000062DCDD1F0680622494609F0BFF9DBF80000A8B10268100012D0032140469047A4
:2002C0000EE054B9012DBBD199F80000010013BF0128F1680870802702E00B2700E0012748
:2002E0003846BDE8F68B0000584500207C4500206043002013010100F301010000000000EF
:2003000070B5DFF8A85A2878062460430BF05BFDDFF89C1A086008B9132070BD0020FF22C8
:2003200006E03380401C0023F270B2703371C0B22B7898420ADA0B6804FB00F61E440028B8
:200340000CBF4FF6FE734FF6FF73EAE70FF2C14000F062FD0FF68510FDF778FE0FF6C51065
:2003600002F0E1FC002070BD70B50446208868B160680378426800F079F948B9606803789E
:200380004268DFF8300A00F073F908B9022070BDA078C01F0A2801D3182070BDDFF8185A8B
:2003A0002888010004D02188C0F58030884201DA012070BD0C200BF006FD060001D1132082
:2003C00070BD002008E06268298880B202EB0012401C5181491C298081B222889142F2D38B
:2003E0000020306008222146301D09F01FF9686810B96E6004E0084601680029FBD1066001
:20040000002070BD38B502460846DFF8AC194C68002301E02346246894B1A5686D899542A4
:20042000F8D12268002B0CBF4A601A6018B10822211D09F0FBF820460BF0C7FC002032BDFF
:20044000012032BDDFF874190870704710B5044610461422114203D000F013F9012204E035
:200460004A0608D500F00DF9002201462046BDE8104002F058BDC80701D4022010BD0020DB
:2004800010BD70B505460E46B0061C4609D5104600F0F7F801462846BDE87040012202F081
:2004A00042BD8820064210D0104600F0EAF8014606F00802284602F036FD010009D0617AB6
:2004C00041B1217A012904D070BDB00701D4032070BD002070BD7CB50446002000900D46BD
:2004E0000223DFF8DC284FF6FF71012000F02CF8060026D0002304221D21204600F0C2FD7A
:200500000190E0B170890199ADF800002B460420ADF8020000220120087000200199487018
:20052000FF20019988700199C8706946204600F00AF9040006D0019809F04BF802E0152466
:2005400000E00124204676BD2DE9F0478146DFF8680844688A4690461E4600E02468FCB1D3
:20056000002700E07F1CA188B8B28842F6D2A068BFB200EB07156889484528BF8245F1D344
:200580003EB12978686833464246FEF7AFF80028E8D0089810B1A16849890180284600E073
:2005A0000020BDE8F087F0B5DFF80C28546800E02468E4B1A5686E89B042F9DBA788BA19C6
:2005C0009042F5DA4FF0000C01E003F1010C1FFA8CF2BA42ECD21FFA8CF305EB0312B2F8B5
:2005E0000AE08645F1D101B10E801046F0BD0020F0BD2DE9FC4104460027ADF804704FF652
:20060000FF786089404515461E4608D001AA0092401C2378626880B2FFF796FF07462378BB
:20062000626800F023F830B923786268DFF8840700F01EF808B160890CE023786268DFF865
:20064000840700F015F858B11FB1BDF80400A84203D0284600F0D2F803E07889404400E053
:20066000608906B130803846BDE8F681DFF858070221FEF73BB880B500F0F2FA00B1008805
:2006800002BD80B500F0ECFA08B1807802BD102002BD70B5012982B00446154616D00329F9
:2006A00018D0052925D0072927D0092929D00B292BD00D292DD00F292FD0112931D01329CD
:2006C00033D0172934D0192936D039E02946FDF7C0FC33E001F04DFEADF80000694620464A
:2006E000FDF7C0FC06002CD12988204600F076FC27E02946FDF7C2FC20E02946FDF7D6FC71
:200700001CE02946FDF7E2FC18E02946FDF7F4FC14E02946FDF7FEFC10E02946FDF708FDA8
:200720000CE02946FDF713FD08E0FDF721FD05E02946FDF723FD01E0FDF72DFD064600E0CD
:200740000226304676BD2DE9FC410E46054617461C4601A900F091FA804638BB380014D01D
:200760000020ADF8000069463088FFF71CFF012FBDF8000018BF0027FFF783FF01463A461A
:20078000284602F0D0FB804680B931462846FDF713FD804650B9019DFF2C07D0AB1C1E22D0
:2007A00029460FF2555000F0FBFBEC704046BDE8F6817CB50D460446164601A900F05DFA25
:2007C00017281AD0300014D00020ADF8000069462888FFF7E8FE012EBDF8000018BF0026FB
:2007E000FFF74FFF01463246204602F09CFB010003D129462046FDF7D4FC76BD10B5044657
:20080000FFF739FF01001CBF611E0C18A0B210BD2DE9F0430D4689B08146A87800261E28E4
:20082000174614D1484600F03CFA06001EBFB078FE28FF2822D0002000900022AB78F0781B
:20084000494600F082FB304600F040FA16E0122804BF6878012813D0484600F022FA06007D
:200860000ED0327910000BD0100607D4A978484600F0C7FB307940F080003071002069E04F
:20088000DFF838452078FF2812D0A878811E17290ED200F08AF958B1A87800F0B3F938B163
:2008A000287810B96878012804D1A878122801D006204FE0A87800F078F9844602A80090EC
:2008C000AB88AA6869782878E0470028804640D1A87800F097F9024602A94846904780466E
:2008E000D8B9AB78042B34D002A8009000222078494600F02AFB804658BBA97802A800F0E5
:2009000097FB08B100203870A878122804BF697801291ED0EEB130711BE06878C8B9A878F2
:200920008DF800008DF804806946A878042818BF0628BDF80800ADF802004846FDF789FBBF
:2009400028B16B4601221621484600F03DFB4FF00008404609B0BDE8F083002070472DE972
:20096000FE430D46804628886988814201D3010001D101206DE00021ADF8041002914FF6F2
:20098000FF7900E0401C0021009100236988002280B2FFF7D9FD070037D0BDF804000028CE
:2009A00038D16B464A460521404600F06BFB040001D111204DE002943878022806D101204F
:2009C0008DF80600BDF80000860827E002208DF806001221BDF8000090FBF1F63878102853
:2009E00013D1788904F8010B102200F034F81034BDF80400401CADF80400B1B2BDF804009E
:200A0000884202D278894845BCD1BDF8040080B90A201EE09DF806000128DFD138780228B5
:200A2000F3D1788904F8010B022200F014F8A41CDEE701A94046FDF721FB48B101AB052238
:200A40001621404600F0C0FA10B1029808F0C1FD0020BDE8FE837889000A04F8010B20465F
:200A6000796808F0E3BD10B582B04C880888844201D3020001D1012016BD00F016F808B981
:200A80000A2016BD002016BD10B582B04C880888844201D3020001D1012016BD00F005F8BC
:200AA00008B90A2016BD002016BD002200924A1D0B79214648E510B5044682B00846694614
:200AC0000088FFF770FD08B9012016BD017ABDF800202046FFF7BAFC16BD70B582B006469E
:200AE0000D46002401E0641CA4B2A888844229DA286810F8142000EB44006946407802EB80
:200B0000002080B2FFF74FFD50B9286810F814100170286800EB440149784170012076BD85
:200B2000017ABDF800203046FFF790FC0100DAD0296811F814200A70296801EB44025278ED
:200B40004A7076BD002076BD10B50C4682B020886188814200D308B9012016BD23799A48B2
:200B6000621DFFF785FD08B9102016BD00200090237961882088621DFFF7E6FC08B90A209B
:200B800016BD002016BD38B504460D4669462888FFF709FD08B9012032BD017ABDF8002089
:200BA0002B462046FFF76DFC32BD022814D0042814D0062814D008281AD00A2812D00C287E
:200BC00012D00E2812D0102812D0122812D0162812D0182812D013E07C4870477C487047BA
:200BE0007C4870477C4870477C4870477C4870477C4870477C4870477C4870477C4870471D
:200C000000207047022814D0042814D0062814D0082814D00A2818BF0C2812D00E2812D082
:200C2000102812D0122818BF162810D0182810D012E0704870477048704770487047704854
:200C40007047704870477048704770487047704870470FF2090070470020704700207047B2
:200C60005549496800E0096829B18A6852898242F9D1081D70470020704710B50C4600F0E5
:200C800010F860B104B120608078FE2801D1172010BDFF2801D1002010BD162010BD022007
:200CA00010BD10B5424A1268002100E0491C3F4C2478CBB2A34207D2C9B206234B43D45A74
:200CC0008442F3D1D01810BD002010BD10B50446A01C00F06DF9FF20E07010BD10B50C4674
:200CE000FFF7DFFF30B101794A1C944204BF01F08001017110BD000010B582B004001EBF3D
:200D0000A078FF28FE280BD0002000901E232188E078172200F019F9FE20A070FF20E070C9
:200D200013BD000070B504464FF6FE70844282B037D008004FF6FF760AD12046FFF7B1FF19
:200D400078BB3046FFF7ADFF05002AD0048073BD012906D12046FFF7A4FF050021D02E80F1
:200D60000BE002291DD10121204602F09AF8C0B92046FFF796FF050013D0A878FF280ED0EC
:200D8000FE2807D0002000901E23E8781422214600F0DBF82846FFF799FFFF20A870002052
:200DA000287173BD0448008870470000554300206443002008120100EC4500205745002038
:200DC000401201001012010004120100C5E20000F7E2000077E300006DE40000DDE400009A
:200DE0001BE500000BE400008DE4000081E5000001E600005B0901005F090100670A010006
:200E0000890A0100B70A0100DB0A0100490B0100870B01007047704782490860704781498C
:200E200048607047804908707047032290FBF2F080B201F070BA0178B02904BF4178002985
:200E40000CD10179122903D1417C012906D101E01B2903D14088012101F07ABA704710B5EA
:200E6000724C607002F048F8401C20700421607801F0D4F9BDE81040FFF742BA38B50C46E5
:200E8000200411D56948407808F043FC050008D02878A02804BF284600F008F8284608F0DC
:200EA000E6FB84F4004032BD002032BD30B587B0044601208DF8000001A92046FDF7BCF9D6
:200EC00005002AD19DF806105648C9070AD54368180005D060886A4601A9984705461CE01A
:200EE00006251AE00368180006D060886A4601A99847050001D110E006259DF8050060B9AE
:200F00009DF806008DF810008DF814500020ADF8120004A96088FDF79CF89DF80000002807
:200F20001EBFA068002808F054FB45B99DF80600122806BF9DF8051001291B2803D06088F3
:200F4000012101F005FA07B030BD2DE9F0410446FF2C0D46164698461FD0202008F072FBFE
:200F6000070018D0B02038707E707D8087F80480069929B1182207F1080008F057FB04E03B
:200F8000182207F1080008F04FFB3946204608F052FC002002E0132000E00220BDE8F0815D
:200FA00010B54FF47A746243BDE8104009F01DBF10B504001EBF2078FF28FE2803D009F075
:200FC000A6FEFF20207010BD80B5009313460A46014615480078FFF7B8FF02BD30B583B0E0
:200FE00004460D46FDF7DDFB50B901A80090ADF804507F230C48007800222146FFF7A5FFBC
:2010000037BD00B583B07E238DF804108DF8052001A900910022014603480078FFF795FF1F
:2010200007BD000068430020F445002055430020052923D006291BD0072918BF09291DD0AF
:201040000B2918BF0D2919D00E2913D00F291CBF1129122912D0162918BF17290CD01B296C
:2010600018BF1D290AD0522918BFD22906D007E0C068704700687047806870474068704773
:201080000020704770B5052914461D4616D0062912D0092918BF112910D0122912D01629F3
:2010A00018BF17290CD01B2918BF1D290AD0522918BFD22906D007E0072606E0022604E0D9
:2010C000052602E0032600E001264FF6FF72944203D1FDF77BFB841B02E0D22908BF0C3486
:2010E000301980B201F0E8FD38B105B12C807142BDE8704009B208F03FBA70BD80B5FFF748
:2011000097FF18B1BDE8024008F063BA01BD00000022022970D10178407801EB002080B2B9
:201120004FF4C051401A2CD0401E2DD040F6FF71401A2CD0401E2DD0401E2ED0401E2FD09A
:20114000FD3830D0401E31D0401E32D0401E33D0401E34D0401E35D0401E36D0401E37D0AC
:20116000401E38D0F83839D0401E3AD0401E3ED0401E39D0401E3DD0401E08BF0FF2C00242
:201180003AE00FF2780237E00FF2740234E00FF2740231E00FF270022EE00FF270022BE091
:2011A0000FF26C0228E00FF26C0225E00FF2680222E00FF268021FE00FF264021CE00FF209
:2011C000640219E00FF2600216E00FF2780213E00FF2740210E00FF274020DE00FF24C02CF
:2011E0000AE00FF24C0207E00FF24C0204E00FF2440201E00FF24402104670470018000008
:20120000011800000028000001280000022800000328000000290000012900000229000091
:20122000032900000429000005290000002A0000012A0000022A0000032A0000042A00004B
:20124000052A0000062900000729000008290000DFF86C1C0870704738B5DFF8684CDFF8F2
:20126000685C20762878C0000AF0ADFDE061C8B1002108E04FF6FF7220F8312000EBC1037F
:2012800000225A60491C2A789142F3DB052000F0AFF8207EFFF7D6F8BDE83240DFF82C0C86
:2012A00001F041BD31BD38B50C46200418D5DFF8140C007E08F02DFA05000ED02878B02812
:2012C00008D1284600F007F920B1297905F10800FFF714FF284608F0CAF984F4004032BD8D
:2012E000002032BD7CB506001C460DD0ADF800108DF8022001966846FFF736F805001AD1B4
:20130000CCB17689300001D1022514E00C200AF05AFD08B913250EE0002101608680846064
:20132000DFF8AC1B0A6812B9086004E00A4611680029FBD11060284676BD30B50C46DFF8A9
:20134000901B0546086883B0002201E00246006898B18388AB42F9D10368002A0CBF0B606B
:2013600013600AF032FD69462846FFF74BF8010002D10CB1019921603EBD01203EBD70B593
:2013800050BB012926D1DFF83C0BC169002300E05B1CDFF8344B2478A34217DA31F83340FB
:2013A0004FF6FF75AC42F3D0002400E0641C467EE5B2B542ECD201EBC305E4B26D680C26DE
:2013C0006643AD5B002DF1D0012070BD1078BDE870400DE0182070BD022070BD0022002858
:2013E00003BFDFF8E00A407E08700222104670472DE9F843DFF8CC7A0446002078760C250C
:20140000F869DFF8C46A406805FB04F870B10AF0DCFC002006E0F969C0B201EBC001002226
:201420004A60401C3278C1B29142F4D3307808FB00F080B20AF0C7FC5FEA000928D0307873
:2014400008FB00F20021484608F0EEF800200FE0516805FB0CF34FF0000E21F803E019449D
:201460000CF1010CC1F808E0A445F1DBC144401C3278C1B2914208D2F969C0B201EBC0025F
:201480004FF0000CC2F80490EEE77C76002000E01320BDE8F28301460020C90705D500236B
:2014A00010220121DFF82C0C1CE7704701460020C90704D5DFF81C0C408900213DE770473B
:2014C000DFF80C1A096821B18A888242FAD188687047002070472DE9F04186B004460020C6
:2014E000ADF8100001208DF81200DFF8D859286A38B900F03EFF0AF066FC0028286200F0C9
:20150000E28018220021284608F08EF82079461C02284FF6FF7817D006282CD008282FD001
:201520000A2833D00C2857D00E2800F08B80102800F08D80122800F08F80162800F093803B
:20154000182800F09780BBE000F013FF288029466088FCF787FD00282189288804D0814218
:2015600028BF01462980A0E0814228BF01466088FFF734FDA4E004A9204600F0AEF87DE08A
:2015800004AA0021204600F02CF977E000F0A0F8070052D0608805AB42460B21FFF772FD48
:2015A00003006B6024D02079BDF81620039000953946BDF8140002900020019000F026FA22
:2015C000070004D160882946FCF796FD29E0162F686808BF00272BE000F07AF807002CD0D6
:2015E000608805AB42460D21FFF74CFD686020B92089ADF81000112745E02179BDF816207D
:2016000003910346BDF814100291618901910095394600F0FBF9070006D160882946FCF7E5
:2016200079FD002841D12AE0162F686808BF002707F0CFFF380001D121E001272089ADF8A7
:2016400010001CE004A9204600F06EF916E004A9204600F0E9F911E00DF1120204A9204623
:2016600000F086FA0AE00DF1120204A9204600F0C0FA03E004A9204600F029FB07463800B2
:2016800011D0162F11D0607814280CD0207928702F712946BDF8100068806088FCF7D9FCB6
:2016A00008B1012601E0162F0AD160882B46F2B21621FFF789FC18B1F1B22846FFF71EFDAF
:2016C0002046FFF7B8FB9DF8120006B0BDE8F08120890DF11601FEF766BF2DE9FA4704460F
:2016E00086B06088DFF8DC57FDF770F880460DF1120000F0D4F8002781464FF0FF0AB9F1F4
:20170000000F5BD009E0BDF810304354BDF81000696892B2000A8854571CBFB2A8F10500D8
:2017200087424BDA207903900026A8F1070080B20290019605F11A0000902B6ABDF8122052
:201740006088494600F0CCFB002802BF6A8B208A904214D1296A606907F0B1FF78B1686820
:2017600058B900F055F90721FFF78CFC686020B9069920890880112030E0B9F80A60BDF8F2
:201780001220618904AB4846FEF733FF002E8146B5D06868C655781C6A6880B23112115424
:2017A000411C4A1C6868B9F1000F89B2ABD100F801A092B2686800F802A0571CB8B248B109
:2017C0003F04B80C288029466088FCF76FFC28B1162003E00699208908800A2008B0BDE85C
:2017E000F0872DE9F043044685B0608888469146FCF7ECFF851EADB2DFF8C87601E0401CEB
:201800002081A81E398988422FDB5FEA08002CD104A800F044F8060027D070892081BDF859
:201820001020317A6088FEF711FE5FEA00081CD120793B6ABDF8102003903146A81E80B27E
:2018400000F0EBF800F0E2F85FEA00080DD173897A8B396A608800F02AF85FEA000804D1F8
:2018600020894FF6FF718842C9D1388901000AD0798890FBF1F0388039466088FCF726FC69
:2018800050B1162008E05FEA08002089A9F8000008BF4FF00A08404605B0BDE8F083009093
:2018A000237B6189208904F10D02FEF74DBE2DE9F8468246894615461E46FCF787FFDFF8F9
:2018C00004460746208990B900F0A3F809215046FFF7D8FB606008B9112023E0A81C608012
:2018E0003A1F208901466B189A4206D203E06088A91C8842F4D0012014E0401C2081606870
:2019000046542089411C2181310A62681154606823892A464946184407F088FE20892818E6
:2019200020810020BDE8F2862DE9F047044686B06088DFF890750D46FCF748FF0026A0F1F4
:201940000109A0F1010814E03888798B0346C9188845BCBFA9EB0000788378687A8B396AA2
:20196000184407F063FE3888798B0818761C3880B6B2A0898642BCBF3888404534DAA06856
:2019800010F8162000EB460004A9407802EB002080B2FEF708FE010009D14FF0010A00F024
:2019A0002BF8786808B107F014FE5046DDE02079BDF8102003901FFA89F000F02EF83B6AB1
:2019C00000F024F800288246E9D178680028BBD100F01EF80F21FFF755FB00287860B3D1BD
:2019E00000F00AF81120E1E760883946FCF7A0FB0028DBD01620D9E7A06810F8161000EB1D
:201A00004600407801EB002028807047608867E2608800234FF6FF72704702900020019071
:201A200007F11A00009070472DE9F047044686B06088DFF890548946FCF7C8FE059004F1CB
:201A40000D0204A80090237B61892089FEF77CFD0026B24607464FF0FF0810E0696801F831
:201A6000068080B2696801F80080461C68686A8B296AB6B2801907F0D9FD688B8619B6B2E2
:201A8000FFB1BDF81020397A6088FEF7DFFC5FEA000A13D12079BDF81020039039460598E2
:201AA000801F80B202900020019005F11A0000902B6AFFF7ABFF5FEA000A10D07889A9F868
:201AC0000000002E48D0688896FBF0F0288029466088FCF73CFB002847D0162045E07EB965
:201AE000FFF796FF1121FFF7CDFA686020B97889A9F80000112038E0688B001D688009E0FF
:201B0000688B6988021D9142DDD10599891F80198142D8DB69687889885579896A68701CDD
:201B200080B2090A1154461CBDF8102061890DF112033846FEF75DFD0746701C002FB6B27A
:201B40008CD06A68BDF81210915580B2BDF812106A68090A115488E75FEA0A002089A9F83B
:201B6000000008BF4FF00A0A504606B0BDE8F087FEB504460D462089164602A9FEF713FDDE
:201B800007002ED0387A80060BD5BDF8080000F0A1F903000BD06088122239469847070082
:201BA00020D1607C002814BF5220207901E00E2718E00190002000906389E268218960883B
:201BC00000F08AFA070007D1607C68B96088FCF7CFFA48B11620FEBD162F03D10027377040
:201BE00002E0012720892880607C00B100273846FEBD2DE9F041044682B00D4660889046C9
:201C0000012101F04EF9002718B9142060700E205BE020896946FEF7C6FC060051D0307A25
:201C200080060BD5BDF8000000F054F9030013D06088122231469847070043D16688304675
:201C400000F008F928B94FF6FF7000F003F9A0B3068000219B4E02E00E2733E0491C737EAF
:201C6000CAB29A4229D24268C9B20C234B4313441A88002AF2D10C2204F10801184607F0C8
:201C8000D5FC002088F800000C2204F10801304607F0CCFCA289608800231721FFF7F2F923
:201CA000B06060B1A289216907F0C0FC60883146FCF764FA40B1162007E0092702E0112793
:201CC00000E00127208928803846BDE8F6812DE9F043044683B06088894600F0BBF80026CB
:201CE0005FEA00084CD0207A012845D1414604F1080000F051F8A0B1D8F804701820019083
:201D000078880090BB88BA683988608800F0E4F90646162E02D10020B8602DE060B33888DD
:201D200028E000270EE0019068880090AB88AA68608800F0D1F90646162E18D10020A860ED
:201D40007F1CFFB25F48407E874215DAD8F804100C227A430A44154629880B000CD07B1C73
:201D600083421DBF9089002816201820DBE7002EE6D02888A9F80000404600F080F82EB947
:201D80006088FCF708FA20B1162003E0162E08BF00263046BDE8FE832DE9F84F0C460020E0
:201DA000002700264FF00C0B46490DE0984202BFBCF8025093B2AB4224D1BCF80430DF195C
:201DC000BFB29A1892B2761C4B7E9E420FDA63680BFB06FC9C44BCF8003043B10028E5D10F
:201DE000BCF80470BCF802201846BA18EAE7022E2DDB38004FF0000904D007F0D1FB5FEA4C
:201E0000000801D1002023E0CA461AE00BFB0AF14518A96859B1AA8808EB090007F006FC1B
:201E2000A88848441FFA80F9A86807F0D2FBBAF1000F04D00C220021284607F0F5FB0AF153
:201E4000010AB2456068E1DBC0F8088087800120BDE8F28F10B51B4AD269002100E0491CA3
:201E6000194C2478CBB2A34207D2C9B232F831308342F4D102EBC10010BD002010BD70B509
:201E8000044600250BE0B06808B107F0A2FB0C220021304607F0C8FB002030806D1C094959
:201EA000497EE8B2884207D26068EDB20C216943461830880028E6D14FF6FF70208070BD68
:201EC000F545002070430020CC430020852101009443002080B5FFF7F3FA00B1806802BD98
:201EE0002DE9FE4F0D468046287AC00693461E464FF0000A0CD55846FFF7ECFF030000F025
:201F0000E4800A222946404698470028824649D128780C9F0D9CDDF83890022816D100F0C1
:201F200018F94FF42051401A012810D9801E3AD0401E14D0FD3876D0401E00F07D80401E62
:201F40006AD0401E6FD0401E00F09180A7E0002C2AD1E868017839800278416883E0002C69
:201F600022D1012038800021E868007830706889401C80B2FEF717FB398860B10278921C8C
:201F800051183980418971704189090AB17002784168F01C68E0081D388004220021701C4F
:201FA00007F042FB93E0002C62D1E8680488042038803470200A70700DF102012046FEF759
:201FC000F2FA05001ED0EC68BDF802204FF6FF786B464146FEF70DFB40B92B786A688C48C4
:201FE0000221FCF783FB08B9ADF80080207802280AD161680222301D07F018FB3888801C2A
:20200000388001E0ADF80040BDF80000B070BDF80000000AF0705AE054BBE86801684046C6
:202020000AF029F802E01CBBE8680088022139803070000A70704AE0E86807F052FE82B299
:20204000A242B8BF4FF0070A41DB944208BF002206D009EB04019142B2BF4A46121B92B2E6
:202060003A80E9682144304607F0E0FA2FE014B14FF00B0A2BE0E86807213980017831702B
:20208000417871704188B1704188090AF17001793171C1887171C088000AB07117E0584630
:2020A000FFF70EFA00281CBFD0F800C0BCF1000F0BD00F980290CDF8049000943B463246E1
:2020C00029464046E047824601E04FF00E0A5046BDE8FE8FF84500202DE9FE4380468946D3
:2020E00017461E4602A94846FEF75DFA05002CD0BDF80800FFF7E4F900281CBFD0F804C07A
:20210000BCF1000F1FD00A980B9C0090019433463A4629464046E0470646B8B9FE2C15D0C5
:202120002878022812D100F014F842F6021188420CD13878797800EB012082B2494640460E
:2021400000F04AF802E00E2600E001263046BDE8FE8368680178407801EB002080B270479E
:20216000704700207047E0B58DF808200223120A8DF80920FE2201920022009202AAFFF797
:20218000ABFF0EBD7CB50129044605D0022922D1012100F086FEF0B92046FFF75BFE08B185
:2021A000FFF76DFE01A800904FF6FF750223194A29460120FEF7C8F90BE0F06801682046EC
:2021C00009F061FFBDF80420002329463046FEF710FA0600F1D173BDF8B50F4F04463878C9
:2021E000FF280D46164611D00A2007F02BFA68B1B12101704480002141700171C5800681B2
:2022000001463878BDE8F44007F015BBF1BD0000081201001C120100F54500200A4610B5C0
:20222000052A18BF042A03D0062A18BF072A08D10C24514B62431A4422F8301D9070002030
:2022400010BD022010BD38B50D4604462888052818BF042803D0062818BF072801D16868AF
:2022600008B9022032BD0121204600F01AFE08B9142032BD4FF6FE70844207D0204600F072
:202280004CFE2989884201D21B2032BD3B48007800282946204603D0BDE8344000F094BA59
:2022A000BDE8344000F046BA80B5354B009313460A4601212CE0E0B50192002305220092F2
:2022C00002930A462F4B0A2100F0CAF90EBD70B50D4684B004461646EB88AA88698828885E
:2022E00003F010F858B1002002900196042000902A46254B1221204600F0B2F900E01820B1
:2023000004B070BD80B5214B009313460A46132100F0D8F902BD38B504461D480129017014
:2023200011D11C480088051DADB2012009F0E4FE94FBF5F082B2284601B0BDE83040002353
:20234000002109F0DDBEBDE83240002009F0D4BE03B50F480078012881B003D102AA01A9FB
:2023600009F0D2FE07BD0B4A001F1080034801707047084800887047984300200A4600205F
:20238000C9280100B929010047290100AD29010057430020F64500207047000010B59D4CA6
:2023A000207000F099FC302200219B4807F03CF99A4960780978081860700006000D09F04E
:2023C00002FD606088B161780A01002107F02CF900206278C1B2914208D26168C0B201EBA3
:2023E0000011FF224A72401CF3E76070207806F050FCBDE810400FF2292000F094BC30B5AB
:202400000C46200489B0834D0CD5287807F081F9050004D000F02AF8284607F028F984F462
:20242000004021E0E0071ED500F097F930B1A878B0B12878012107F041FA11E0A978080091
:202440001CBFE878FF280BD08DF80810652302A901910022002100914FF6FF7100F035FB34
:2024600084F0010000E0002009B030BD3EB504462078902849D16078132815D10020654AD2
:2024800006E0A368C0B233F8103059189170401CA5789178C3B2AB42F3D3002935D010789C
:2024A000012107F00BFA37BD65882146684600F0E0F90199F9B1BDF80000052804D1694695
:2024C000284600F026F818E004281CBF0628072813D10C2250495043084430F8301D61B113
:2024E00080786A46294600F0CEFA30B9BDF8000004280AD005E0012803D1A06808B107F0CF
:2025000068F801212846FFF723FF37BD4149C8707047F0B50E4689B00446308900250428C0
:2025200044DB716802A800F091F8BDF80A20182A63DA3189101D814235D19DF80800C0070E
:2025400036D57068071D9DF8090000F015FB06002CD035719DF8080001280BD0132821D160
:202560003078042822D1BDF80A20394603A800F01EFA05E0BDF80A20394603A800F0C3F9E9
:202580000546304600F017FB03A80190002000902A469DF80830307A214600F096FA304648
:2025A00000F0E3FA15B1204600F033FB09B0F0BD9DF80800122817D17068011D03A800F04E
:2025C000D8F90500EED1144881890029EAD003A9019100229DF809109DF80830807B0091B6
:2025E000214600F072FADDE79DF80910ADF800506A462046FFF758FED4E70120ADF80000CE
:202600001720ADF802006A469DF809102046FFF74BFECBE70846002098430020CC4300208F
:2026200010B504464FF6FE7084420ED0012906D002290AD10121204600F033FC28B9204640
:20264000BDE81040002100F0E5BA10BD0A7802704A7842708A78C97802EB012141807047D6
:202660002DE9FC410D4616461F460A9A0999044601AB00F051FA804608BB01990898087041
:202680003346DFF818060178491CCAB2002A06BF012101220A46017029460198027100976B
:2026A00001980279204600F00DF8804620B901981E2100F076FA02E0019800F056FA404693
:2026C000BDE8F6812DE9F041044684B00E4617469846172000F0F0FA050026D00A9A1000CA
:2026E00003D04146281D904700E00020010A2E70E9706F70A8700521001DADF80800ADF8D6
:20270000001001956946DFF8980500780028204602D000F059F801E000F00CF80446200098
:2027200004D0284606F055FF00E01324204604B0BDE8F08110B50B88DFF868250C24634334
:202740001A44303A536833B94B685360098950811181002010BD162010BD80B5052000F075
:202760000FF858B9062000F00BF838B9042000F007F818B9072000F003F800B1012002BDB0
:202780000C2210B5DFF81C1542431144A1F1300484B06168A9B1DFF8082512787AB1ADF8E9
:2027A0000000019169462089ADF80800608900F00BF810B1606806F00CFF0020606001201B
:2027C00000E0002004B010BD70B50D4604462889010004D0DFF8D0140988814201D21B2013
:2027E00070BD6868042106F0C7FE0646288930702889000A70702888B0702888000AF070DA
:202800002889051D4FF6FE70844213D10C2006F019FF01000CD0902008704C8002200871E2
:20282000CD808E60DFF88404007807F004F818E0132070BD3346AAB20021204609F068FC82
:20284000010007D002280ED0072810D012280CD01F280DD1DFF8480401780A001CBF491E66
:202860000170002070BD142070BD022070BD042070BD38B50446002060600879022821D1E5
:20288000CA88042A1EDB886801784378C57801EB0321837889B203EB05230D1D95429BB2B4
:2028A00010D1052B18BF042B03D0062B18BF072B08D1218123806FF0030106F05DFE606062
:2028C000002032BD012032BD0B88037002220B881B0A43700B88012B06D14A8882700422C4
:2028E0004988090AC1700CE0022B0AD14A8882704A88120AC2708A88027106228988090A1A
:20290000417110467047022A1BDB0A784B7802EB032202800288012A05D18A78C97802EB42
:20292000012141800BE0022A09D18A78CB7802EB032242800A79497902EB01218180002035
:202940007047012070470A8802700A88120A42704A8882704A88120AC2708A8802718A8809
:20296000120A4271CA888271C988090AC17108207047082A18D10A784B7802EB03220280DA
:2029800011F8022F4B7802EB0322428011F8022F4B7802EB0322828011F8022F497802EB6D
:2029A0000121C180002070470120704705E0022A00D10EE00120704700BF0A880270098809
:2029C000090A417002207047022A00D101E0012070470A78497802EB0121018000207047FA
:2029E00080B54B8800F8013B04224B881B0A00F8013B0B8800F8013B0B881B0A00F8013B96
:202A00000B8873B94B88022B04D1496807F095F9082206E0032B04D10822091D06F006FE8F
:202A20000C22104602BD10B50446042A084628DB0178437801EB0321618010F8021F4378BC
:202A400001EB03212180801C21880B0013D16188022906D1082A14D1042107F057F9606063
:202A60000DE0032908BF0C2A0BD101460822201D06F0DCFD03E0012908BF042A01D10020F3
:202A800010BD012010BDF8B504460D461646102006F0D8FD070016D0A02038707D80002068
:202AA00078702EB10C223146381D06F0BFFD04E00C220021381D06F0B7FD3946204606F096
:202AC000BAFE0020F2BD0120F2BD2DE9F04180460D4616461F46202006F0B4FD040019D0AA
:202AE000A220207066706580069820716771079929B1182204F1080006F098FD04E0182268
:202B000004F1080006F090FD21464046BDE8F04106F091BEBDE8F08170B51E0004460D4637
:202B200021D0012100F0BDF9D8B161480078002100E0491CC9B2814211DA5E4B1B6803EB89
:202B400001125388002BF4D10020107001F14000508022B1D48015723260002070BD152033
:202B600070BD142070BD012070BD10B504461022002106F059FD23E0002200E0521C4C49C3
:202B800009788A420BDA4B49096801EB02114B88002BF3D00B798342F0D10846704700200F
:202BA00070474FF47A724A4300F1090301460FF2190008F01AB910B50446607A08F0A7F8F9
:202BC000FF20607210BD000010B504001CBF6088002807D01721204600F005F82046BDE816
:202BE0001040C2E710BD1CB50446207804280FD10020019000900A46E188207A1323FFF790
:202C000064FFE18802B0BDE81040122205202EE013BD072170B50446002539BB18E02548F5
:202C20000068EDB200EB0516307800281CBF707AFF280CD0F088A04209D13046FFF7BBFF95
:202C400014213046FFF7CFFF3046FFF78EFF6D1C17490978E8B28842E1D30425FF222146D9
:202C6000284600F004F86D1C082DF7DB70BD10B50C240C4B60431844A0F13004608988427A
:202C80000AD1606840B1FF2A1CBF0178914203D106F09FFC0020606010BD0000C843002013
:202CA0000A46002098430020F645002008460020094600200C46002080B5001D80B209F082
:202CC0002BFA28B1BDE804406FF0030106F054BC02BD70470020704738B5B94C0022002122
:202CE000204604F0EFFA20783025684309F06BF86060B8B100210AE005FB01F202444FF6EB
:202D0000FF735380491C00231371D362C9B222789142F1DB0020002104EB8002401C0C2837
:202D20009160F9DB31BD0021A54A02EB8102936813B9906000207047491CC9B20C29F3DBEF
:202D4000132070472DE9F04106460C4617469846204600F078F808B1112024E04FF6FF7001
:202D600000F071F805001DD085F8058006220699A81D06F05BFC0622002105F10C0006F0EC
:202D800053FC6C802F712E700020E86200210898A8740998A8820A98E882204600F0FFF84F
:202DA000002000E01520BDE8F08110B500F04BF8040012D06088012100F0F1F8E06A08B104
:202DC00009F003F830220021204606F02DFC4FF6FF7060800020207110BD022010BD38B519
:202DE0000C46154600F02FF858B10179002D14BF2143A14301710221408800F0D0F800200F
:202E000032BD152032BD38B50C4600F01CF8050017D028792070062268796070A91DA01CE4
:202E200006F004FC062205F10C0104F1080006F0FDFBA87CA073A88A2082E88A6082002007
:202E400032BD012032BD10B500225D4B00E0521C1C78D1B2A14209D25968D2B23024544391
:202E600021444C888442F2D1084610BD002010BDF0B5534B5C6800224FF6FF7700E0521C56
:202E800019788A420BDA302101FB02F561194E88BE42F4D0655D8542F1D10846F0BD002032
:202EA000F0BD10B50C464FF6FE71884206D0FFF7CAFF00281CBF0079204201D0012010BD9E
:202EC000002010BD80B5FFF7BEFF00B1807C02BD10B5002000213A4A08E05368C9B23024B5
:202EE0004C4323441B7903B1401C491C1478CBB2A342F2D3C0B210BD31480078704710B574
:202F00000C46FFF7A0FF00281CBFC18AA14202D0C482002010BD012010BD80B5FFF793FFE9
:202F200000B1C08A02BD70B505460C461646FFF78AFF28B94FF6FE70854218D0142070BD96
:202F40000179C06A28B9CA0609D5C90609D40F2070BD01F01202102AF7D1002EF5D0052017
:202F600070BD20B1807EA04201D20C2070BD002070BD70B5040011D00026114D0BE06868B1
:202F80003021714308444FF6FF724188914218BFA047761CF6B228788642F0DB70BD70B511
:202FA00004460D460026064800EB86008268100002D0294620469047761C0C2EF3DB70BD50
:202FC000CC43002038B504000D4618BF002D01D1022032BD0321684600F038F900F030F88C
:202FE0002A466946204600F07AF8040004D103226946E81C06F01AFB204632BD30B50400F0
:203000000D4618BF002D83B001D102203EBD0322E91C684606F00AFB00F012F801AA694610
:20302000204600F05CF8010009D10322294601A806F045FB012801D100203EBD01203EBD66
:203040009DF8021001F03F0141F040018DF80210704730B50C46002818BF002C8DB01546DE
:2030600000D00DB9022011E00146102200F034F81022214604A806F07CFB00F05EF80446D0
:20308000102208A9284606F074FB20460DB030BD80B52020FBF7C3FB38B10246064800784E
:2030A000BDE80840012106F0CCB801BD02480078012106F0E3B80000C943002070B58CB0C7
:2030C00000F020F800F006F8280A8DF81E008DF81F50ABE010222146684606F04ABB70B53F
:2030E0008CB000F00FF8FFF7F5FF032229460DF11D0006F03EFB00F020F8044603220DF160
:203100002D0198E004460D46164630220021684606F08ABA70B58CB0FFF7F4FFFFF7DAFF9C
:2031200000F08FF800F009F89DF82F109DF82E2001EB022131800CB070BD6846D0E0F0B5C4
:2031400095B005460C4616461F463022002108A806F06AFA1022294608A806F00AFB1022D1
:203160000021684606F060FA07223146FFF7B4FF072239460DF1070006F0FBFA1C9901B1E8
:2031800001218DF80E101A9901B101218DF80F101022002104A806F047FA1B99062205A880
:2031A00006F0E7FA1D9906220DF11A0006F0E1FA102221460CA806F0DCFA69460CA800F005
:2031C0001AF808A800F08CF80446102210A90CA806F02CFA04A90CA800F00DF808A800F0BE
:2031E0007FF805461E98102210A906F0C2FA45EA040015B0F0BD10B51022037811F8014B4E
:203200006340521E00F8013BF7D110BD70B50C468CB0154601461E461022FFF75DFF08226B
:20322000214604A806F0A5FA00F00BF8FFF785FF0446102208A9304606F09BFA20460CB029
:2032400070BD0822294606A806F093BA70B504460D4600260BE006F077F9F6B2010AA155D5
:20326000761CF1B2A94202D2F6B2A055761CF0B2A842F0D370BD00688208920000F0030137
:2032800002F004021143C208D20002F0080211430209120102F010021143400941EA4010BC
:2032A000C0B270470268920841EA820222F004038A0802F0010243EA820222F00803CA08F2
:2032C00002F0010243EAC20222F0F0030A0902F0010243EA0212490942EA411101607047D2
:2032E00000F1200200F1100108F01ABF2DE9F0470700144614BF002C022088B089463FD003
:2033000009F10405A8B208F05EFD060036D0FBF7D0FB80464A463946301D06F02AFA86F87A
:2033200003804FEA1827B7704FEA184986F801904FEA186A86F800A0FBF7B8FB01461022CB
:2033400003A806F016FA0820009001ABAAB2314603A800F085F805000DD184F800806770B7
:2033600084F8029084F803A0082201A9201D06F000FAFBF7A2FB00F070F800E013252846B2
:2033800008B0BDE8F0872DE9F04F89B015001CBF129F002F80460E469A4615D0FFF753FDD6
:2033A000040008BF142055D03878797800EB0120B97800EB0140F97800EB0169A06A484582
:2033C00004D310F1010F01D0022043E026B12079800758BF01203DD50822002101A806F0C4
:2033E00023F90AF1040B1FFA8BF008F0ECFC060008BF13202ED052462946301D06F0B9F939
:2034000004223946304606F0B4F9102204F1180105A806F0AEF90820009001AB1FFA8BF26A
:20342000314605A800F01CF8050010D1082201A903A806F09EF90822391D03A806F03FF919
:20344000012811BF012549464046FBF78DFD00F004F8284609B0BDE8F08F304608F0B5BCA6
:203460002DE9FA4F834685B0924600F0D6F8814600F0D3F8B9F1000F804608BF132400F06A
:20348000C280B8F1000F08BF132400F0B98000F0C4F8064600F0C1F805460EB9132434E00D
:2034A0000DB913242FE01022002106F0BDF8324629465846FFF718FF040024D130780FF2CE
:2034C0009417000604D44946304600F0B7F808E02946304600F0B2F84A463946284600F0EB
:2034E000A3F899F80000000604D44146484600F0A5F808E02946484600F0A0F842463946AC
:20350000284600F091F8FFF7A8FF15B1284608F05CFC200074D100F080F8054600F07DF826
:2035200006460DB9132468E00EB9132462E0514601F10F00C21000EB12700003001403D1F8
:203540004FF0000A00220AE0CA0801EB12721209A1EB0212521E9241D20FA0F1010A4FEA20
:203560000A10059B80B2184422B13246494600F05BF818E0CA0801EB12721209A1EB0211F2
:203580000022C9B28A42B8BF835C02DB0CBF802300230DF80230521C102AF3DB3246414652
:2035A000684600F041F810220021284606F03CF800270BE00598390189B201446A462846C2
:2035C00000F032F800F02CF804467F1C3FB2574501DA2000EED020000CD16A463146284600
:2035E00000F022F800F01CF80446109A0698294606F01CF8284608F0E8FB0EB1FFF72DFF88
:20360000484608F0E2FBB8F1000F1CBF404608F0DCFB204607B0BDE8F08F102008F0D3BB68
:203620002A46694658465FE630B50023C45CCD5C6C40D4545B1C102BF8DB30BD10B500220A
:203640000F23C45C42EA4402CA54C25CD2095B1EF7D510BD0000000000000000000000007D
:20366000000000872DE9F047DFF86867044600253068884692461F46A94608B1112036E0CF
:203680006FB12120FBF7CBF897F89C10814206D32220FBF7C4F897F89C10884201D2022053
:2036A00025E0702008F08FFB306008B913201EE07022002105F0B8FF31684D7030680470B0
:2036C000306880F802803068A0F806A08766C56605711CB100F0D7F90546A9463168012073
:2036E0004870B9F1000F18BF00F005FB2846BDE8F08738B5DFF8DC562B68002443B11A79D4
:20370000022A18BF032A05D0042A18BF062A01D0122032BDDA888A4201D0022032BD014626
:20372000102203F1080005F081FF286810212830FFF78CFD286800F1180200F12801083061
:2037400000F01AF92868417802781AB103290DD1022107E0042902D10221417006E00329DE
:2037600004D10521417000F0A4F90446204632BDDFF8601688607047DFF8581648607047E1
:20378000DFF85026126802B9704780B5D288824208BF012904D100F0AEFABDE801402FE347
:2037A00001BD1720CCE2000070B586B0044600208DF80000A0680578691E0A293BD8DFE803
:2037C00001F006060F13171B1F23272B2F0001A900F0C1FE122826D106218DF8001022E08D
:2037E00001A900F02BFF1EE001A900F043FF1AE001A900F056FF16E001A900F06AFF12E057
:2038000001A900F083FF0EE001A900F0A9FF0AE001A900F0B0FF06E001A900F0C3FF02E005
:2038200001A900F0D8FFD8B96088FFF70CFB052628B9082612E007208DF8000013E0827CD8
:20384000DFF89015082A0CBF8968496831B10B68190003D001AA2946984706468DF80060E2
:203860009DF8000020B16088694600F007F803E00B2D18BFFFF70CFC06B070BD38B50C464A
:20388000DFF854352246022100F0B3FF0546207800F056FA284632BD70B5DFF83845064656
:2038A000206800280D463FD0C188B1423CD14178062930D1017811B3816ED1F89810C26EF7
:2038C000CB0704D5137BDB0748BF072113D4C1F34003002B1FBFD368C3F34003002B09212E
:2038E00009D1C1F3800100291EBFD168C1F38001002902D00B21417007E0A06800E06068D6
:2039000018B14068010018BF804720684078122818D1002005E0112906D1280018BF3225C8
:20392000284600F00DFA0DE0280007D13046FFF78AFA18B1017941F0100101713146284669
:20394000FBF704FD012070BD10B5DFF88844206888B1007800280CBF6068A06818B1406851
:20396000010018BF804720684078122803D1BDE810400020E4E110BD2DE9F34FDFF85464CC
:2039800030688DB0904608B9122041E0C088FFF75AFA050008BF14203AD009A800F0F9F939
:2039A0003068017879B1D0F86CA0FBF793F8040018BF01240020FBF790F86F7909AE81467B
:2039C00005F1060B0EE0C66EFBF784F8070018BF01270020FBF781F86C790DF1240A8346E5
:2039E00005F1060907A9504600F05EFD05A9304600F056FDCDF81080CDF80CB00297CDF896
:203A0000049000940E990D9805AB07AAFFF797FB0FB0BDE8F08F70B5DFF8B8530446686845
:203A200086B000281CBF006800280E461CD030788DF8040070788DF8050002A8B178FFF711
:203A400031FCF0786B688DF80C0001AA7068049001211B6820469847010005D08DF8000011
:203A600069466088FFF70AFF06B070BD38B5D94CA46834B1A5682C0003D0049C0094A8479B
:203A800032BD022032BD1FB500F031F870B1684600F07FF92168C8880978002914BFCF4B92
:203AA000CF4B6A46072100F0A4FE00E0012004B010BD1FB500F01BF800F11801102268463F
:203AC00005F0B4FD2068C74B0AE01FB500F00FF800F128011022684605F0A8FD2068C24BC8
:203AE000C0886A46112100F084FE04B010BDB94C20687047F8B5B74F04463868C06E002575
:203B0000002840F0C480102008F05DF939680028C86600F0BA808E6E1022214605F086FD5D
:203B200038680178002940F08880C16ED6F8982011F80C7F02F0010307F00107BB4218BFF9
:203B40000023520843EA4202C6F89820C2F340030F68C7F34007BB4206BF530803F001037D
:203B6000002322F0020242EA4302C6F89820C2F380030F68C7F38007BB4206BF930803F0E5
:203B80000103002322F0040242EA8302C6F89820C2F3C0030F68C7F3C007BB4206BFD308B2
:203BA00003F00103002322F0080242EAC302C6F89820C2F300230F68C7F30027BB4206BF76
:203BC000130A03F00103002322F4807242EA0322C6F89820C2F340230F68C7F34027BB4232
:203BE00006BF530A03F00103002322F4007242EA4322C6F89820C2F380230F68C7F38027CA
:203C0000BB4206BF930A03F00103002322F4806242EA8322C6F89820C2F3C0230968C1F32F
:203C2000C0218B4206BFD10A01F00101002122F4006242EAC121C6F89810617800291EBF57
:203C40007178002905211CD16168C1F3800139B996F8951011F0040108BF012111D012D06A
:203C60000178002919BF31782278327821780529B8BF052A07DA0FF2B41302EB82021A44F8
:203C8000515C017104E0182502E0132500E011252846F2BD0A46554B15E010B586B004466D
:203CA000ADF800101046014608220DF1020005F0BDFC4F4B6A460B21204600F09AFD06B0C1
:203CC00010BD0A464B4B112100F093BD1CB58DF8001004461046014606220DF1010005F056
:203CE000A5FC454B6A460821204600F082FD13BD0A46424BE7E710B5FFF7F9FEE0B1C06EF9
:203D000008B108F062F82068806D08B108F05DF82068C06D08B108F058F82068006E08B1B8
:203D200008F053F82068406E08B108F04EF8206808F04BF800202060BDE81040FFF7B6B956
:203D4000244900B5096885B081B14A6E03920A6E0292CA6D01928A6D0092CB78CA880978A7
:203D6000FBF77EFB05B05DF804EBC4E705B000BD18490968102000291CBFCA6E002A07D083
:203D8000896E29B191F89C00117A814238BF0846704770B504460F48006800281CBF856EBF
:203DA000002D0FD02878207005F1950668786070201D3178FFF776FAF0792072D5F89800DA
:203DC000E06070BD2046BDE870401022002105F02BBC0000044400208B460100A14401006C
:203DE000A94401002B46010053460100C1460100E9460100314701004347010093470100B2
:203E000010B52620FAF70BFD0446C0B268B1022007F0D9FF48B11021017000214170014624
:203E2000E0B2BDE8104005F006BD10BD010102010201010201020303040103010101010155
:203E4000030302010300000080B5DFF85C05007840074CBFDFF854050020FFF78DFC002030
:203E600002BDF0B589B004460D46164610220021684605F0D9FBDFF83875386850B3C18872
:203E8000A14204BF0178002924D1417806290DD100F1480200F1280104AB0830FFF7B6F93E
:203EA000C0B9FFF765FF024604A924E0806D88B1028A112927D1964209D100F033F801285C
:203EC00005D1FFF755FF02463868816D13E03220FFF736FF2046FEF7B6FF07001CBFF86A28
:203EE000002819D0018A8E4216D100F01BF8012812D1F96A8A7E684605F098FB69462046AA
:203F000008F012F90BE09642E4D100F00BF80128E0D13868816DEDE7204608F009F9012076
:203F200009B0F0BD00F112010822284605F0C7BBF0B5DFF87C640746306885B01546002413
:203F400088B901290ED1281DFFF795F9E9680291297A019100906B782A7879880020FBF70D
:203F60001EFA0020DBE0C2887B889A4218BF0820F8D10278012A08BF0720F3D0491E09296E
:203F800060D8DFE801F0055F142CC849617F92B22846FFF7AFFD30B9DFF8180400780421CF
:203FA00005F08CFCBAE0182831D10324B6E010222946383005F03AFB30684178042908BF73
:203FC00003215ED000F1180200F128010830FFF7D3FCFFF76EFD00B10824052062E0102296
:203FE0002946483005F022FB306800F148016A460830FFF7C1FC306800F1380110226846B9
:2040000005F05DFB012805D1FFF75FFD002874D1062047E0042481E041780C2912D1C06DC1
:2040200020B91C2007F0CFFE3168C8653068C06D40B100F076F8FFF79BFE3168C96D887671
:204040000D202FE0072469E0C36D002BFAD040780D28F7D1288818820822A91C03F1120097
:2040600005F0E4FA3068816ED1F89810C1F34022002A1FBFC26ED268C2F34022002A27D0B5
:204080000E2130E041780E29DCD1006E20B9172007F099FE316808663068006E08B100F082
:2040A00040F80F203168487038E041780F29C9D1006E0622691C113005F0B8FA3168287869
:2040C000096E40F0020008743068816ED1F89810C1F3802100291FBFC16EC968C1F38021B2
:2040E000002916D01021417018E0406E38B9142007F069FE3168486608B908240EE03068EC
:20410000406E30B100F00DF83168496E4FF0FF300861002000E02878FFF712FE204605B033
:20412000F0BD1022294605F081BA10B5FFF7ABFC002842D19E4C2068816E91F89510C90705
:2041400009D5C16E097901F00301012903D1C17841F00101C17020680179022904D0032913
:2041600018BF04290AD10121C0880022FBF744F900F024F804202168487010BD012918BF66
:2041800005291AD10221417020680179012905D110220021083005F047FA07E0816E102267
:2041A000891C083005F042FA00F008F810212068BDE810402830FFF749B810BD2068C17876
:2041C00041F00401C17070472DE9F041784C20680178002940F0E5804778D0F86880C66E54
:2041E000062F2FD1D8F89810CA0704D5327BD20748BF072731D4C1F34002002A1EBFF26851
:20420000C2F34002002A08D00927FAF743FB01462068C088FFF755FD10E0C1F38001002999
:204220001EBFF168C1F3800100290BD00B27FAF73DFC01462068C088FFF75AFD072F50D1F8
:20424000082090E0F91F0429F8D8DFE801F0062F05380400F2E7EAE7D7E7806D20B91C2019
:2042600007F0B1FD216888652068856D002DE5D0FFF77EFDA87610220021284605F0D4F9B5
:20428000A97E080004D01129BCBF2846FEF7DEFF05F05AF92882082105F11200FEF7D6FF39
:2042A0002068C0882946FFF7F5FCC7E7816DD1B101F11202098AC088FFF7EFFC13E0FAF714
:2042C00009FC01270546012D0CBF002700253846FAF703FC02462068C0882946FFF7F6FC44
:2042E00014E0082F0CD1D8F89800C0F3400000281EBFF068C0F34000002807D0092032E0D1
:20430000092F08BF0A202ED00A2F0BD1D8F89800C0F3800000281FBFF068C0F3800000280D
:204320000B2020D1D8F89800C0F3002100291FBFF168C1F3002100290C2014D1C0F34021A2
:2043400000291FBFF168C1F3402100290E200AD1C0F3802000281EBFF068C0F3802000288B
:2043600014BF102012202168487020684178072918BF082904D009291CBF0A290B2910D125
:20438000C088FEF760FD00281ABF818A01EB51024FF4FA72BDE8F04106480078022104F0D6
:2043A00050BFBDE8F0810000AD4400201046002004440020C943002010B5354C207004F0F3
:2043C0006BFC20780621FDF729FFBDE810403148FEF7A9BC70B50C4620042F4E3DD52C4835
:2043E000007805F096F905000ED0287892280ED0A0282AD12846FFF7D7F9A86808B105F0F1
:20440000E8F8284605F033F984F4004070BD68783E281AD1A878052806D0082815D1A979BC
:20442000A888FFF739FA0EE0A888FEF74BFD0428E7D130680028E4D0C3681800E1D0EA8909
:20444000A888A91D98470028DBD114480078FF28D7D0294605F0EFF9D6E7E00704D5FFF752
:20446000A0F984F0010070BDA00704D5FFF76CFA84F0020070BD600708D5306818B18068F5
:20448000010018BF804784F0040070BD002070BDC94300208137010008440020494500208C
:2044A0000A460146012002E00A460146022070B50C46150018BF002C01D1022070BD107079
:2044C000D61C20785070751C60789070201DFEF7D2FE3070207A2870E068000A00F0010012
:2044E0006870E168C1F3402101B1022108436870E168C1F3802101B1042108436870E168AD
:20450000C1F3C02101B1082108436870E168090B40EA01106870207B00F00100A870E168AB
:20452000C1F3400101B102210843A870E168C1F3800101B104210843A870E168C1F3C001D8
:2045400001B108210843A870E168090940EA0110A870002070BD38B505000C4618BF002CDB
:2045600001D1022032BD68782070A8786070201DE978FEF797FE2879E168207221F480714E
:20458000687900F0010241EA0221420821F4007102F0010241EA4221820821F4806102F034
:2045A000010241EA8221C20821F4784102F0010241EAC221000941EA0031E1604908A87977
:2045C00000F0010242EA4101420821F0020102F0010241EA4201820821F0040102F0010224
:2045E00041EA8201C20821F0F80102F0010241EAC201000941EA0010E0602120FAF70FF998
:20460000217A814205D32220FAF709F9217A884201D2122032BD20780528BCBF6078022894
:2046200001DB182032BD002032BD80B50B0018BF002801D1022002BD032112E080B50B46DA
:20464000002818BF002B01D1022002BD411C10220BE080B50B0018BF002801D1022002BD11
:20466000042103F8011B10220146184604F0DEFF002002BD80B50B46002818BF002B01D1F5
:20468000022002BD411C1022EFE7002918BF002801D10220704705220A7000784870002010
:2046A0007047002818BF002901D102207047407808700F2800DA08B91820704700207047A8
:2046C00080B50B0018BF002801D1022002BD0621C7E780B50B46002818BF002B01D102206F
:2046E00002BD411C1022C0E780B50B0018BF002801D1022002BD07211970082201885970A6
:204700000188090A9970811CD81CAFE780B50B46002818BF002B01D1022002BD10F8011F42
:20472000427801EB022119800822811C981C9DE780B50B0018BF002801D1022002BD0821FD
:204740008FE780B50B0018BF002801D1022002BD09211970062201785970411C981C85E757
:2047600080B50B46002818BF002B01D1022002BD411C102279E780B50B46002818BF002B37
:2047800001D1022002BD417819700622811C581C6CE780B50B0018BF002801D1022002BDA6
:2047A0000A215EE780B50B46002818BF002B01D1022002BD411C102257E710B50C0018BFB1
:2047C000002801D1022010BD0B212170FEF753FD6070002010BD80B50A46002818BF002A83
:2047E00001D1022002BD41781046FEF75BFD002002BD70B5044684B008460621ADF80010FE
:20480000ADF8080015461E46FEF756FA010001910ED02846B047050004D169462046FDF72E
:2048200012FD0546280004D0019804F0D2FE00E01325FEF72DFC284604B070BD2DE9F84FE3
:20484000804608F106048A46DFF8AC0421780068DFF8A8B43822514308441AF8011B00F1AB
:2048600020090C2908F1E30708F1660608F20315DFF88C0400F21381DFE811F00D0054006A
:204880000B01730011011101D1001E01E100E700D400DE00EC001AF8010BB077022251461F
:2048A00008F1860007F048FC0146022208F1880007F042FC0146022208F18A0007F03CFC00
:2048C0000146022208F18C0007F036FC0146B07F4000B0770222308C40003084708C4000D2
:2048E0007084F08C0001F08408F1820007F024FCB08B6188401A80B247F6FF71884227DA19
:20490000B08C718C401C49004843F18C884228BF3B201ED20120B07600202083012089F809
:204920001400C9E00522514608F1610007F004FC0146022208F1900007F0FEFB08F18E0040
:2049400062884188891A89B247F6FF72914201DB2820A0E0012101700020208389F81410A6
:20496000AAE0B87DC00708D41A20B873787B012808BF0D213AD00D2186E000203070B071E0
:20498000082201207874514608F1AC0007F0D4FB0146022208F1B40007F0CEFB08F1A40465
:2049A00001460822204607F0C7FB05460821204607F0C6FB08F1980404222946204607F04E
:2049C000BBFB0421204607F0BBFB08F19C0007F0BBFB08F1940007F0BBFBCA48018841F0A1
:2049E00080010180787B012805D104214046BDE8F44F01F01DBA307C012804BF707C0F28AD
:204A00000BD1404601F0F6F90421404607F0A4FB0F2089F80000FD2136E0042134E00120D5
:204A2000F87349E000203070B07138700B21012078730020787027E0012038743CE000F039
:204A40003DF8404601F0E2F82DE000F037F80220787531E0B07908B93D201CE01AF8010B23
:204A6000687002224FF483705146404407F064FB01464FF484700222404407F05DFB0120FD
:204A8000B8772878C0B90C214046BDE8F44F07F063BB9AF800006872012028720CE0A972F0
:204AA000404607F05DFB38B99BF80000BDE8F44F4FF4804104F002BFBDE8F18F002142185C
:204AC0001AF8013052781A4008EB0103491C082983F8F920F3DB70472DE9F0478046302066
:204AE000002500FB08F9DFF820A2884E0C24306804FB05F74844C0190021017102213068B0
:204B00004844C0194171DAF8141030684A784844C3192132DA806A1C531002EB93739B1092
:204B2000A2EB830262430244C25148781F3080B207F01AFB31684944CA19906008B1801EC8
:204B400090606D1C042DD2DB7148006800EB08100022016042608160C260BDE8F08738B5A9
:204B60000C46A06888B968484069407800F11F05A8B207F0F9FAA06030B1801EA060A81CED
:204B8000E0800020207131BDE08031BD70B50446206F05682E46F08800281CBFB06800282E
:204BA00003D131462046FFF7DAFF3668AE42F2D170BD70B504460021206F056801602E4696
:204BC000307930B9B06820B104F003FD0020B060F0803668AE42F3D1206F05602046BDE875
:204BE0007040D3E780B500F024F807F0C1FA07F0C3FABDE804400FF2390107F0C1BA7CB5DD
:204C0000444D454E2A68019104460A20ADF8000024328DF8024030681268694690472A68EC
:204C20003E48283240EA042130681268904773BD704738B53A4C374A0220208021461268DE
:204C400035480068243212689047812801D0032032BD00203349FF22002501EBC003401C4F
:204C600004281A705A705D60F7DB002000222389012585402B4209D001F8320001EBC20528
:204C8000521CD2B20123042A6B7002D0401C1028EDDB002032BD70B504462348006884B042
:204CA0000D4680470646A06810B9A56004E0084601680029FBD10560002028600520154A97
:204CC0001268ADF8000024321348019402950068126869469047812806D0206800280EBF74
:204CE00025606068056065603046104909688847002004B070BD000064460020844C002073
:204D0000D04E0020BE4C002084CB0100104F00200C4F0020604600205C460020010009044B
:204D2000CC4F0020AC4F002080440020844400202DE9F84304462448007801280F461546F9
:204D4000994608D121480188491E018089B211B9012007F019FADFF8788098F80000FF260D
:204D600078B10C2004F06EFC48B3902101704670022101714480C5808760014698F8000051
:204D800019E0082004F05EFC010018D0012008704E70781F48600222027048684470200A01
:204DA0004A6840EA091090704868C57000204A68107108480078BDE8F44304F03CBD3846B7
:204DC000BDE8F24304F005BC244F0020264F00202B44002028440020DFF8040590210170FF
:204DE00088214170012181700221C1700021017180214171002181712021C1710021DFF88E
:204E0000E4048160C1601F21017000214170418041601F20DFF8D014087070472DE9F04153
:204E200000F073F81F4640D5DFF8B804007840073BD5DFF8B88498F8000098B10C2004F02F
:204E400001FC90B39121017084803E214170C5800321817006810021C1704781014698F809
:204E6000000021E0152004F0EDFBF0B101210170042200F0BCF80A704C713E224A70CD7193
:204E80000A228A704E720322CA70CF7200220A71220A8A712A0A0A72320A8A723A0A0A731F
:204EA0000146DFF84C04007828E2BDE8F081F8B500F02BF828D5DFF82C040078000723D5B1
:204EC000172004F0BFFB07001ED001203870082200F0C2F90C207968887004207968C87018
:204EE0007868047178684571280A7968887131467868C01D04F09AFB3946BDE8F440DFF8CF
:204F0000F003007804F097BCF1BD0446DFF8D003C07980060D4616467047F8B5DFF8D4635D
:204F2000074630780C46154620B3B8000C3080B204F088FB00284DD09021017087701321CD
:204F4000417000F10C01416000EB47010C31816000210AE0436834F8112023F81120836866
:204F600035F8112023F81120491CB942F2DB014630782BE0B800461C06F10B00C0B204F0DE
:204F800061FB38B30121017000F031F804214268117013214268517041688E704168CF70A0
:204FA00000210EE000F01DF8137100F01AF81B0A537100F010F8937100F00DF81B0AD37114
:204FC000491CB942EEDB0146C9480078BDE8F44004F031BCF1BD426835F8113002EB8102E8
:204FE0007047426834F8113002EB81027047FF21417000F108014160704738B50446B84862
:20500000C079800632D5B748807A00062ED5B74D287858B1062004F015FB38B390210170E4
:20502000448057214170014628781BE00D2004F009FB01001AD001200870FF20487001F12F
:205040000800486004204A68107057204A68507002204A6890704868C470200A4A6810714C
:20506000A3480078BDE8344004F0E5BB31BD2DE9F54F9B48C079800681B08846994640F127
:20508000E480984E31787078C90700F0020001D4010067D0954909780F9C109DDDF844A0F6
:2050A000DDF848B0002950D0222004F0CBFA070058D0912038703E2078709DF8040038B987
:2050C000F87006220C9907F1080004F0AFFA07E03120F8700622002107F1080004F0A4FA83
:2050E000707880071AD50A20B8700D9830B10146062207F1150004F099FA01E000F0BEF8F0
:205100000E9830B10146062207F11B0004F08EFA01E000F0ADF887F8079008E00120B8704D
:2051200000F0ACF800F0A4F809F00100F871A7F8048039469DF80800B871FC813D82A7F8A9
:2051400012A087F814B0694879E0002814BF1F2013208DF800009DF800000B30C0B204F028
:2051600071FA070071D00120387000F075F879689DF8000088707178786889074CBF0A2159
:205180000121C17079689DF804000871786880F805804FEA18207968887179689DF8080023
:2051A000C8717178786889074EBF80F8089009F00101017278680C9921B10622093004F026
:2051C00035FA03E00622093004F02EFA71780F20890718D578680D9921B106220F3004F0F8
:2051E00025FA03E006220F3004F01EFA78680E9921B10622153004F019FA03E0062215301D
:2052000004F012FA1B2079680C54401C7A68C0B2210A00F01CF80D54401C7A68C0B2290AEF
:2052200000F015F801F800A0401C7A68C0B24FEA1A2100F00CF801F800B039462C480078AC
:2052400003B0BDE8F04F04F0F6BABDE8F78F1154401C7968C0B27047FF20787007F1080016
:2052600078600420796808703E207968487070470622002107F11B0004F0D6B90622002103
:2052800007F1150004F0D0B92DE9F041174F044638780D469046C8B117480078B0B905F105
:2052A0000C0080B204F0CEF9060017D0912030702A46FF207070B570B48006F10C00B060DC
:2052C000414604F0B3F93878314617E043462A462146BDE8F041FF2006F05ABFBDE8F0810F
:2052E000004F002010440020084F00202A440020284400202B440020284F0020BDE8F0413E
:2053000004F099BA30B540F67B44851FA5423CBF8D1FA54212D2814210D3B2F5FA7F0DDAC2
:20532000A3F10A0040F67744A04207D2501C49004843B0EBC30F8041C00F30BD002030BDEC
:2053400080B501F042FF8DF80000FFF745FD7749002008706A4676490880012140F603403F
:2053600063E080B50FF26022412141F2020006F013FF002002BD7CB5002808BF00294FF626
:2053800020442DD162BB01A802F0ADFC9DF8040000EBC000451DEDB2284606F014FD06008A
:2053A00018D020203070042070700020B0709DF8040000280CBF0022721D311DF01C01F059
:2053C00081FF324629462046FFF75EFF304606F0FCFC15E004218DF801102020072106E04B
:2053E00001F070FF04218DF80110202000218DF800008DF802106A4603212046FFF744FFA2
:20540000002076BD80B500208DF800006A46494800788DF80100042100208DF802004648C6
:2054200000788DF8030042F2020006F0B5FE002002BD012070470120704738B5044642F293
:2054400016052946002006F0ABFE204601F0D1FF8DF8000020B16A460121284606F09CFEB6
:20546000002032BD80B5012302F09DF900F01BF842F21E00D9E780B5012102F051FA00F0A3
:2054800012F842F21D00D0E780B530B1014608222A4804F0CBF8002000E0122000F003F82D
:2054A00040F66340C1E78DF800006A460121704780B542F213010C2006F072FE002002BD6F
:2054C00080B51D218DF8001004218DF8011010B906F06AFE00E011208DF802006A46032176
:2054E0004FF61D400DE080B51C208DF800006A4604208DF8010003210C208DF802004FF6B1
:205500001C40FFF7C1FE002002BD02F025BC80B530B10B4902780A7040784870002000E0FA
:205520001220FFF7C0FF42F201007EE7244F0020264F0020504600205246002018440020D8
:205540001044002000B585B06A460DF1020101A806F02EFE8DF80800212107208DF80900ED
:2055600002AA02A8817002218DF80B109DF804108DF80C10BDF802108DF80D10090A8DF8D6
:205580000E10BDF80010C171090A017241F20100092106F001FE002005B000BD10B582B094
:2055A00004460DF1030102F0A4FB8DF800008DF80140200A8DF802006A46042141F20540C5
:2055C00006F0EAFD002016BD000000800000C000000000E400000028220000000000000489
:2055E0000000F7C3B37E0000000000000000000000000000000000000000000000000000C0
:2056000000000000000000000000000070B5012002F096FC0128DFF8DC4320D1DFF8D853AE
:20562000A87C01280BD10020A873284606F0C4FDDFF8C8030078022104F040F90FE00B2657
:2056400006F0BEFD2A8AA1680B2590FBF5F506FB150080B24FF47A65684300F05CF80020BE
:20566000608060836086BDE8704006F0ADBDF8B5012002F065FC0128DE4CE14D3BD1DE4EF2
:2056800006F19A0041880A001CBF007804F016F906F11007387A01280AD1B87AA87120B170
:2056A000787AC0EB401030441B30A86000203872B87803280FD006F15900017801290AD164
:2056C0008178E97121B14178C1EB411131445C31E960002101700B2606F072FD3A8890FB2E
:2056E000F6F60B2707FB160080B24FF47A667043A16800F010F8E87E00F0E00040F086007F
:20570000E876C048E8610020608060836086BDE8F14006F059BD40F6C41380B203FB0200F0
:205720004018A060207B00F0F00040F00200207370472DE9F84F012002F002FC01280CD1A6
:20574000AD4C0020A073204606F036FD00F0B3F9050003D1812000F03AFF46E1012068712E
:2057600005F12C07A848DFF898924178A74EDFF88CB2491C4170402002F0B5FBA4492860BF
:205780003823AA7909685A438B18A249CA681832CA6002F5B061C16003F12808D9F800002B
:2057A000006800F1080A06229AF80000C0F3801088F800000AF1020103F12C0003F036FFBB
:2057C00004220AF10E0106F10C0003F02FFF03220AF1120106F1100003F028FF9AF815007A
:2057E000B87002220AF1160105F1300003F01EFF02220AF1180105F1320003F017FF022288
:205800000AF11A0105F1340003F010FF3889688402220AF11C0105F1360003F007FFB87808
:205820004000B870B8884000B880F8884000F88080B279890901798143006A8C521C5A4394
:2058400089B28A4200D230B99BF80000802104F035F83B216AE005F12E01284606F0B8FC4E
:205860000520A881284606F0B7FC05220AF11E0105F1610003F0DAFE9AF8230040093870BA
:2058800006F0AEFC6882E18A634C401AA8F80A0005F161019AF8230000F01F00F87328466B
:2058A00000F0ECFCD9F80010096800200871012141F601002080002060806060284600F00D
:2058C000FDFCA0730020E073266154486061544841690978CA074CBF102200228B074CBFD1
:2058E000202300235FEA41794CBF4FF040094FF0000909074CBF802100211A4349EA0202F3
:20590000114341F00F0131720B2171720421B1724449097801290EBF0120806A4078F072CE
:20592000A879FFF7D9F8306020B90721284606F05BFC5AE0DFF8F090A979D9F8000000EBC4
:20594000011006F055FCD9F80000A97900EB01107060F8630421306878649BF8000003F0B6
:20596000ADFFB8884FF4C872811C688AA9614843B0FBF2F0421C6A6140F6C4102B68D3F87C
:205980000C9000FB0191891AA1F5A861A1609960217B01F0600141F002012173617B01F01F
:2059A000F00141F0010161732A68A16811616969BA78490000FB021101F5F66171611B4A03
:2059C000F17C01F0F00141F00401F174F98800FB0120F0611649F07E00F0F00040F004000E
:2059E000F0762868446007200870BDE8F14F06F0EBBB0000244C0020EC490020844C002018
:205A0000584D002000204E00B04C0020384D002064460020984E0020E04D0020704E002097
:205A200084CB0100864C00201C4F0020F0DDFFFFB84C00202DE9F041079D002600274FF62D
:205A4000FF7435F817C0A4451CBF761CF6B27F1C062FF6DB00270DE00CF1010C5FFA8CFC31
:205A6000E646B64505DA35F8178035F81EE0F045F2D17F1CB74208DA35F817C0A44504D002
:205A8000614528BF07F1010CE8D2B7420ED17EB1884203D0180009D0994207D3069811467B
:205AA00006F0AAFB47F6FF71884201DB012000E00020BDE8F0812DE9F843DFF8A00ADFF818
:205AC000A09A017899F80000884200F09080002000E0401C884280F28A80D9F804204FF4DE
:205AE0009073434302EB030808F104063278002AEFD1DFF8701A0968B07038224243114468
:205B00000122327008F161070022727001207871012208F168000023027120310022026062
:205B20008260B280F280FF250122327308F1E804002288F8392072613276728308F18E021A
:205B4000137003760B758023037300238373C3740D706376A376E3762377E383238488F871
:205B60000B3108F1E30013710370437023606360A37223734FF487702372404463730380C6
:205B800043808380C3804FF48C704044FF2203600571C3800B720B734B738B73CB730B7488
:205BA0004B74042108F1770003F01DF93D707D70BD70FD701F2038710020DFF8AC190A188E
:205BC00008EB0003527883F8F920401C0828F6DB0020207499F80000401C89F80000C0B280
:205BE000012804BFB07889F80200404600E00020BDE8F28310B5DFF870490821601C03F081
:205C0000F1F8607840F00100607010BD70B50446092006F0F5FA48B300F0DFFB14BF0E20B2
:205C20000A20E880002105F10806296029716971032030700822092006F8010F04F1F9019D
:205C4000701C03F0F3FC94F8920028B1334609220321204600F008FD02F080FD0246A06EF7
:205C60002946FFF718F80020E083012070BD38B50546012006F0C4FAC8B1A0F1090400209A
:205C800020602071607103210220E08004F108000170052100F8011F02F060FD024655F8EC
:205CA000680F2146FEF7F7FFA88AE882012032BDF8B505460E46DFF8B478DFF8B4480DE060
:205CC000027A032A07D04079C00604D5481C20703878401C3870A86E06F096FAA86E06F09C
:205CE00097FA217810B10279032AE9D0080013D0DFF880281278914205D2012E0CD1DFF8D7
:205D00007808007840B1A879ADF80000ADF8021000F06AF800202070F1BD2DE9F0410446DC
:205D2000DFF85808DFF84868006882B080478046A06E10B308E0017A032902D0407900F0A3
:205D40004DF8A06E06F060FAA06E06F061FA0028F1D1A06E06F060FA074609E0387A0328E6
:205D600002D0787900F03AF8384603F032FC3F68002FF3D1A06E06F03BFADFF80408DFF812
:205D8000EC1700780870206F78B106F041FA07463D46A86818B103F01CFC0020A8602D68B6
:205DA000BD42F6D1206F06F023FA3078010008D0A179ADF80010ADF8020000F015F8002067
:205DC0003070204606F02CFA204606F0F5F9DFF8B417096840468847BDE8F381C00602D539
:205DE0003078401C307070470DF1020269460120FFF793B870B50446DFF880070068804739
:205E000004F17601FF234A79521E4A71D2B20AB94B7008E00022A5187735521C6E782E709F
:205E2000032AF8DB0B7100220A70BDE8704011E038B50446DFF8440700680D468047002207
:205E400004F176010A704D704A790AB901224A71BDE83440DFF82C17096808472DE9F04101
:205E600000260027DFF8F846DFF8F08608E0316849688068896806F0D7F900B92E467F1CDA
:205E800098F80010F8B288420DD26068FFB24FF49071794345182868697940680029EED038
:205EA000002EE4D1EAE7B079BDE8F081F0B54FF6FF710A460024DFF8A83606E06E8E17462D
:205EC0003246BA4288BF3A46641CDFF890663678E5B2B54219D25D68E4B24FF490766643C6
:205EE00035446E79002EEFD005F180068A42377804D1002F0CBF6A8E3289E5E7002FDDD034
:205F0000368917463246BFB2DBE7014693B2994288BF19460846F0BD2DE9F8430446884649
:205F2000174600260AE031464E1CCBB203B1012300902A464946204600F055FAB8B2D0B19F
:205F4000BFB21C2FACBF1B25FDB2284606F0E4F85FEA00090BD02A46414603F067FB7F1BD8
:205F6000B8B20028A84414BF00201020DBE7812006F05EF90720BDE8F2832DE9F04DDFF865
:205F8000E0750C4615467968DFF8FC65DFF8FCA54FF49072504382B001EB0008307801289F
:205FA0009B4602D0022830D06AE0B068BBF1020F04D100F072F80020B06029E07388B18849
:205FC000EA18914205DA00F068F80020B0608B2054E02A462146184403F028FB708828182D
:205FE000708080B2B28890424AD198F87400802817BF81287F209AF80010401A00F045F865
:206000000020B0807080022035E0BBF1020F37D1042DB8BF8C2031DB21786078091D41EA22
:206020000020DFF86C15B08082B20978914238BF8A2023D381B2A94238BF8B201ED380B2B6
:2060400006F092F8B060C0B12A46214603F0EEFAB28895420BD198F87400802817BF812875
:206060007F209AF80010401A00F00FF808E07088281870800120307002E0812006F0D8F874
:206080002046BDE8F64D03F0A4BA40B200905B46B168B878D2B2FEF74BBE0021B180718030
:2060A0000221317003F095BA2DE9F84304462068007840284CD1E08B002849D0DFF8D4045F
:2060C0000078012844D1DFF8B40400688047804601F0E9FE618E40F6C416891C06FB0109FF
:2060E000DFF87C242068A17992784768914229D1B868494606F098F830B306F09DF8054613
:2061000040F2024000F0DEF92969484606F098F8618E628E7143B0FBF1F0218980B241184A
:20612000618150432168096906FB0010B86004F1380041780170204600F0E6F8284601F0DC
:2061400043FF01E00069B8604046BDE8F44381E6BDE8F183DFF84004DFF8403440F602011A
:206160000180002141804160816001730121417300218173C173DFF8281409880182DFF8A9
:206180002414C96A8A681B78126803EB43031A44B2F80120428249684161704730B583B052
:2061A000FFF7D8FF0020CDE90000DFF8FC53DFF8FC032D68DFF8E0430068103500232D684C
:2061C00003222146A847DFF8E823C2E900016088B0F5806F1CBF892006F02AF8DFF8C40300
:2061E000DFF8D023C068127841881143DFF8B02311800078DFF89413800643BFDFF8B803BB
:206200000068400A0020087037BD70B582B004461020ADF8000004EB4405DFF88803DFF859
:206220008823C66AB0680068126828442432B0F80100ADF802006946DC48126800689047EB
:20624000D648D5490470B06800682844B0F80100488273BDD348D149C06A806809780068CF
:2062600001EB410140567047D448817B012903D1007D08B10C2070470020704730B50A7935
:2062800002F01F020A71002280F83A2000238C5CDC40E4070BD590F83A50054403EBC2047B
:2062A00085F83C4090F83A40641C80F83A405B1C082BECDB521C052AE8DB30BD30B500F1DD
:2062C00038025378D47801FB0431252391FBF3F3252404FB131111700023117800E05B1C92
:2062E0009478DDB2A54207D2DBB2C51895F83C50A942F4D1084630BD91FBF4F204FB121141
:20630000084490F83C0030BD70B5044604F1380004F18E06017841706089218905F06CFF3E
:2063200005463078012801BF70882189491C884206D104F161012046FFF7A0FF00203070C7
:2063400029462046FFF7BAFF21680978402904BF9B49887370BD80B580F8F12005F074FF51
:2063600038B998480078BDE804404FF4804103F0A5BA01BD70B50446022005F041FF58B306
:2063800000F02BF814BF07200320E880002105F1080329602971697103201870022003F87E
:2063A000010F94F80C01587094F8920020B102220321204600F058F902F0D0F904F1680670
:2063C000024630682946FEF766FC04F10E00002101820088F082012070BDA0F1090594F8FD
:2063E000920000287047F8B50546084616461F46092103F0C1F8044604F10803002F0CBF0B
:206400000221012103F8011B00202060207106986071E68095F86620012A12D1701CE0800D
:2064200095F892202AB1001DE0803246284600F01BF902F093F90246A86E2146FEF72BFC7C
:206440000DE0A86E05F0E8FE18B9A86EC46006E0084601680029FBD104600020206000209D
:20646000F2BD02B10422012804D0022806D004280AD00BE0C2EBD1000A3803E04800C2EB0E
:20648000E0000B3880B27047002070471B20704702B10422012804D0022806D004280CD049
:2064A0000DE050180A30C00405E050180B30C00000EBD070C003000C7047002070474FF476
:2064C000A4707047384B1B6840F2024188423E48B0F90010354800680CBF01220022143331
:2064E0001B68184710B588B040F60302ADF80820ADF816100022ADF80A20039204920021AD
:206500009DF81420284CADF8181002F060028DF814208DF81A008DF81B1000239DF8152028
:20652000224802F0F00242F001028DF815200791CDE900112468006810340322246802A92B
:20654000A0471B4AC2E90001BDF80A00B0F5806F1CBF882005F06CFE08B010BDBC4C002061
:20656000B04C002064460020D04E00208B4C0020BA4C0020874C0020884C0020804400200F
:20658000524600208444002020460020C04C002050460020BB4C002098460020B94C0020A9
:2065A000944C002084CB0100604600205C460020204400205146002080130050EC49002090
:2065C000E04D0020844C002058460020704705F02FBEF0B50C46114640F67B42A51F95424B
:2065E0003CBF8E1F964283B024D2A14222D3B3F5FA7F1FDA089AA2F10A0640F67747BE42C7
:206600003FBF5B1C4E005E43B6EBC20F12D290F8920000281CBF01FB03F000280AD10C980D
:206620000A9B099A01900B9800902046FFF702FA012801D10120FEBD0020FEBD00B583B05C
:206640000821ADF8001001901E2106E000B583B00821ADF8001001901F21ADF802106846AA
:206660004449096888470EBD2DE9F8430446424800680D4616461F46804700F081F805F0BC
:20668000E7FD04F1C30005F0E7FD20680078802804F1B60902D14A46012103E0402805D183
:2066A0004A460021D4F8E80005F0DAFD3B4632462946484605F0D8FDD4F8E800401CC4F81D
:2066C000E8004FF48030FFF7C1FF4046BDE8F4432A49096808472DE9FC470446264800681B
:2066E000894616461F46804700F04AF805F0B0FD04F1C30005F0B0FD206800780125802847
:2067000004F1B60A02D15246002103E0402805D152460121D4F8EC0005F0A2FD01A80090D8
:206720003B4632464946504605F0A2FDB8199DF804100278914201BF01A94A7843789A421D
:2067400007D18A7883789A4202BFC978C078814200D00025D4F8EC00401CC4F8EC004FF497
:206760008030FFF773FF05490968404688472846BDE8F6877C4400208044002084440020B1
:2067800080464FF4803059E780B54FF49E720FF23001DFF8E00C02F0D7FADFF8080D0021B3
:2067A00001700122DFF8001D0A7302220A70DFF8FC1CC0F80D10DFF8081EC0F82D1001BDC2
:2067C000990400211905002179040021F0B5174C40216118C878022805D00948002101602A
:2067E00008498847F0BD256E074E3560600728432066276824600E48804727603560F0BDFE
:206800002C110440A56500002840044010B5074CA17D002905D10121A175480204493E39C6
:2068200088472068002800D0804710BD540200218B39000010B50549054A72B6C878012847
:2068400002DC01204870121D62B61047940200216D470000F8B51A4E0546316B1948CC0946
:20686000E401002D11D01849097802290FD0007B044372B60120154F4002B84711482038D8
:206880000088C109C90704D016E0C07AF0E7407BEEE70F493463CC61400AC0070CD0012041
:2068A0008003F16A002D01D0014300E081430846F1620749403948630020B84762B6F8BD13
:2068C000800200218800002196020021DF3C0000404004400749002800D00420064A72B6F0
:2068E0000978C90701D0105800E0802062B640B2704700006B020021586004402DE9F041FC
:206900000FF24C00DFF8581D2722036844688568C6680769D0F814C0D0F818E0D0F81C8033
:206920000B604C608D60CE600F61C1F814C0C1F818E0C1F81C8020302031521EE5D14268B1
:206940008368006808604A608B60BDE8F0810000546100007F140200060005000F00080065
:206960004800520080FF3F000000000000000000000000000000000030400040014003408B
:2069800007400F404F40CF40CF41CF43CF47CF4FCF3FCF2FCF1FCF0F000000000000000095
:2069A00000000F00080000003F00000040003F000000040068000E00DC00060043001A0049
:2069C000050000000000020000000000000000000400C00000000400C00000000700000021
:2069E0000000000000000000000000000000000050C00091007070C0009100708231210081
:206A0000319110B10070018101B100A18231329110B101911110418141226340F106007095
:206A200051C0019130181039833108D01831416F3100319110B1831414166F6800702510AC
:206A400050C00091F4C340C12014036F311041045082F0228440512622C08231210031911A
:206A600010B163393110410482C082312100319110B163393110A2C082312100319110B104
:206A800050101531051405920070536452C0311031066131C102566412C1311021397106FB
:206AA0005131E1025664007051C0019101CCE2C05664536411C1C2C0566454B0007154A04D
:206AC00064B0F0800022B5404012B09032B0F0C2C06811C122C15664B0C0C56851C001911E
:206AE000E2C0823160820200329110B15382533953399D6450C0D36800008012B09032B0EC
:206B00000070536401C122C1566401C1C2C0566453829D64C012B09032B00070536472C2CC
:206B200081C0566422C111C1566402C011C1566462C031C3566462C311C1566402C311C185
:206B40005664538253399D64E2C35B641122FC4042C281C8566452C211C1566472C2E1CEBC
:206B6000566402C281C8566402C201C85664B0C010690070536442C201C8566452C211C0D1
:206B8000566472C2E1C0566402C001C1566462C001C3566422C101C1566462C301C15664CE
:206BA00002C301C1566453829D64007002C1623101C0A080001E3641101A38612010101A65
:206BC000136F236E1116121638690070E092D08200223F45C0B200700000000000000000F6
:206BE000000000000000000000000000000000000000000000000000067305720B720E72A8
:206C000050B00071818060B050A09280F0EFF19202933E65412278458080F1C1100430162A
:206C200001110114016C8B618C618D618E618F6190619161936195619761996170627362B4
:206C40009180F2C0210421318280422A1214321601112114016CA661C761AC617362A66152
:206C6000C761AC6173629B619B619B619B619B619B61AC649B61D9649B61E6649B61126520
:206C80009B612E659B618280E0DFF2923E65B0B0A261B1B00673057230B05861D0CF3E65F2
:206CA00084C203C0C0C3686490785091607810316178101400925078403161781000403158
:206CC000717810001092B0786092817821923078403141781000309210C0F0919B6154A06E
:206CE000F0805022CF45408000226646C76100C86091598150B0918041222E46C0CF3E653B
:206D00001282823182394239281077641282F11212042F101F312F1440C120140D6F6D390D
:206D2000DE10F4C34E0482C082312E006D39A2C082312D001A828A392082803180390BC01B
:206D40000B18AC7830824039021011C0013010C00118021882312100C126919103B013B057
:206D600063B053B003823914418001226646B481C491D5819518B51C1C4EC51C544A65915E
:206D8000F08010220C422C623D9110B13E9110B165910F925981F914AB18BC10F080502267
:206DA000C74110222C460C62B0CF3E6563B030820010F2C02004021011C0013010C00118EF
:206DC000021882312100C1269191919113B003B063B053B064B054B00071418001226646F5
:206DE00063B064B0F0805022C741B181C191D1819118619131B0446212828231823942390D
:206E00002810776459810582591420820BC00B18AC7880C0007163B0626A0C620182628179
:206E20008231823DA0EFF19202933E6503A09B61A28077649B6150B000719B612DE9F04F3C
:206E4000DFF8D44ADFF8D45A207007210020E86183B0DFF8980B01700D21418040F2212196
:206E60008180DFF88C0BDFF89C1B29628A7E0270FF2ACB7E437008BFFF2B0E7F86704F7FA9
:206E8000C77091F81EC080F804C0C97F417116D1FF2E08BFFF2F12D1BCF1FF0F08BFFF2988
:206EA0000DD1DFF8641B0A7802704A7842708A788270CA78C2700A79027149794171DFF88D
:206EC0004C1B0278DFF8488BDFF8487BDFF8483BDFF8486B0A7042784A7082788A70C2788D
:206EE000CA7002790A714079DFF8342B4871FF21DFF8AC0B017041708170C17001714171A4
:206F000001202871101D017141718171C17101724172002101708172A021818103218173BC
:206F20000721C1730021017428214182012101750021817502F15A0100224A7001220A70DD
:206F400042750020DFF85C1B0880D8F82C104878A87008783870801C8A782A708A681279C3
:206F6000521E1A70CA786A70CA682A618969DFF8382BA9614FF4967111801821484380B237
:206F800004F021FFB060002855D03878010055D04FF49071484380B204F015FFDFF80C9B23
:206FA000C9F8040008B9B06843E038783821484304F009FF686120B900F070F8D9F80400B1
:206FC00037E03878DFF8E8AA000104F0FCFECAF8000028B900F062F800F05CF8686928E088
:206FE0003878DFF8D0BA000104F0EDFECBF8000048B900F053F800F04DF8686904F0E5FEC4
:20700000DAF8000015E038783021484304F0DBFEDFF8A01B086088B900F040F800F03AF8CB
:20702000686904F0D2FEDAF8000004F0CEFEDBF8000004F0CAFE4FF4804126E000F0BBFAEB
:2070400007460820ADF800001E20ADF802004FF40050DFF8641B096801906846884702F0D7
:20706000C5F9D8F80C00697800880843DFF84C1B08803846DFF8481B096888470C21DFF800
:207080002C0D05F0F9F84FF40051207802F016FCBDE8F78FD9F8040004F097BEB06804F04C
:2070A00094BE70B50C46E00788B00DD505F0C4F838B100218160DFF80C0B0068010018BF3C
:2070C000804784F0010072E0A00707D500F071F83C20FDF7CCFF84F0020068E06007DFF82F
:2070E0003C5827D5DFF8C409817840684FF490724A4302446869382359430144901D12F8DF
:207100002C3F069353891B090593838B0493D2885208039200220292019201F12C020092EA
:20712000012291F8283001780020FDF7A0FF84F004003CE0200607D500F03BF83B20FDF717
:2071400096FF84F0800032E0A00508D5DFF8D80C016841F00041016084F4007027E06005C7
:2071600004D502F0EFF984F4806020E0600405D5812005F05DF884F4804018E0A00415D51D
:207180004FF0FF30E861FEF7E5FF2E69366805F1340305F1480205F1240105F16000B04755
:2071A000E86000F012F884F4005000E0002008B070BD00200690059004900390029001904B
:2071C00000900023012200217047F8B5DFF84C47DFF8D8582369E068DFF83868183300222B
:2071E0001B684FF0FF319847DFF82408DFF8601BC06A8068407908700027FEF7CFFFDFF865
:20720000540B05F03DF805F023F805F03DF8DFF8740B00210170017141718171C171017208
:2072200041720022DFF8F80700F10E010A70A0224A8007224A7103220A7100220A738A727E
:2072400000F8592F0122CA720021427081700BE068684FF49071794308444179012908BFD9
:20726000FEF75BFD7F1CFFB230788742F0DB05F00FF8A078DFF8601B087000F01BFEFEF75D
:20728000B9FCDFF8581B00200870DFF8541B08700120DFF8501B08700020DFF84C1B0870E8
:2072A0000120DFF8881B08700020DFF8841B0870DFF8801B0870DFF8801B0880DFF87C1B5B
:2072C0000870F2BD2DE9F0411446DFF8485708B12A780270DFF8D48711B198F801000870A6
:2072E000002C3ED0002600271CE0C9B2DBB2605402F128000179E154591C427900F034F839
:20730000827900F031F8C27900F02EF8027A00F02BF8427A00F028F80078C9B24E1C60549C
:207320007F1CFFB2287887421BDA384604F0B4FF0028F5D1D8F804004FF490717943F6B214
:207340000844DFF8FC1A4969A7553822006800787A430A44711C4B1C80280CBF0020012059
:20736000C3E70020BDE8F081C9B26254491C704738B50C00054601D1122032BD04F08CFF2A
:20738000010017D100F0DDFC01680978402901D00C2032BD00214B42625C0344491C1029AB
:2073A00083F8E220F7DB012180F8E4100521FEF73FFD002032BD10B5044604F06DFF01001A
:2073C00016D100F036F801680978402901D00C2010BD00F1F0010A78012A03D106220A777F
:2073E000022102E006224A700D21FEF721FD002010BD10B5044604F04FFF01000CD100F059
:2074000018F890F8F810022907D1817900F1F9020020FDF74CFD002010BD01680978802906
:2074200003D1082104F098FEF5E74029F3D1112010BDDFF8100A40684FF4907161430844F1
:20744000704710B5040001D1122010BDDFF85C06407808B10C2010BDFEF7CCFBDFF8E809B4
:2074600022784178114041706278817811408170002010BD0404002138B50C00054606D072
:20748000DFF88C15C96A89680979884201D3122032BDFEF7BAFEDFF8B808057001202070A5
:2074A000002032BDA30300216C03002111040021DFF85C25D26A92681279904201D312203F
:2074C0007047DFF8541508700020704710B5140019D011B1012908D015E0FEF7BBFE10F13C
:2074E000800F20700DD1302010BDDFF82405C06A80680168007900EB4000084410F8030CF0
:207500002070002010BD122010BD2DE9F8430C0005469046994605D05FEA090018BFB9F1EA
:20752000010F01D0122044E0DFF8F0733878404504D28A2004F07CFE30203AE0284604F0EB
:20754000ABFE010035D1DFF86405DFF88C6840684FF4907169434518307820B9012004F0E5
:207560009FFE072025E000F026F83178491E3170DFF84C1609688847B8F11C0FBCBF38780B
:207580001C280ADB424621462846FEF7C5FC01000FD1204602F01DF807E0102000904B4629
:2075A000424621462846FEF71EFF2846FEF77CFD0020BDE8F283DFF8940800680047000024
:2075C0005104002130B5DFF87408017883B009B121203EBDDFF87818DFF878480B7B49602E
:2075E00003F0E00343F085030B7341F60A024B7B0A8003F0F00343F002034B730022662362
:207600008B734A808023CB7340F6C412DFF848388A600B614C615A6001251A7A1D8002F058
:20762000FE021A722525DA7A9D7002F0F002002542F00102DD705D72DD60DA7225800D225C
:207640000270B64CDFF81428E068DFF81438CDE900252569083503222D68A84741E00000C8
:2076600000C0002130B5282983B003DA050018BF012D01D012203EBDDFF8C047207808B1AC
:2076800021203EBD480000F6621081B20120FEF729FFDFF8D017DFF8C837496040F6080012
:2076A0000880002048808860012D087B00F06000087300F056F80CBF03200A208873002283
:2076C000DFF8A4074861002008828861CDE90022C87C00F041F8C87403220B2000F048F8EB
:2076E000A847208100203EBD30B5282883B001DB12203EBDDFF84447217809B121203EBD7D
:20770000400000F6621081B20020FEF7EBFEDFF85C17DFF84C37496040F60700088000225C
:20772000002048808860CDE90022087B00F060000873032200F015F802208873DFF828070E
:20774000086100204861C87B00F006F8C8730C2000F00EF8A847C4E700F0F00040F00100BE
:207760007047487B00F0F00040F00200487370472070DFF8CC462569E06808352D68704733
:2077800080B5DFF8B80600780B281CBF0C280D2801D0212002BD40F20140FEF793FEFFF770
:2077A00014FD002002BD2DE9F04F0D462828B8BF262D83B0804616460FDA310018BF012EA2
:2077C0000DD0022E18BF032E09D0042E18BF052E05D0062E18BF072E01D0122099E0DFF817
:2077E0005C9699F8001009B1212092E0DFF86046DFF86476DFF85CA641F60A01218040005F
:20780000002161806460A1606630217B01F06001217340F6C41B617B01F0F00141F0020182
:207820006173A07329468020E0732761C4F814A000203880BD701846012818BF0228FE700C
:207840001BD10022FEF724FEB0F5BC7FD8BFC7F804B02EDDB0F57A7FD8BF41F2883027DDEA
:20786000B0F5CB6FD8BF41F64C5021DD40F6490188421EDA42F210701AE003280CBF0820B3
:2078800002204143C9001B2202FB001000F5BC7080B2F93040F2712190FBF1F140F27122BD
:2078A000796002FB110000B1012040180BFB00F07860387A00F0FE00387200210020787274
:2078C000F860F87AFFF748FFF8720020AAF80000DFF89C058180C18080F80080802145706D
:2078E000867001724C48DFF868140078DFF850650870092089F80000FEF750FC00F07AF86F
:207900003569F068083503222D682146A84730810020BDE8FE8F0000844C0020504600207B
:2079200030B5282883B001DB12203EBDDFF80C150B780BB121203EBDDFF8144541F60903F0
:207940002380420000236380A3606632237BA27303F0600323738022637BE27303F0F00347
:2079600043F0020363736460DFF80825DFF8083522616361002515600F2515710125557196
:20798000DFF8E4549560552515735573957300251561D57B05F0F00545F00105D573002297
:2079A0001A805A809A8080229A7100229A60DFF89054DFF8BC24107000205070FF2090707F
:2079C00000209080D080802010720A200870FEF7E5FB00F00FF8032221462C69E8680834EA
:2079E0002468A047288100203EBD00008C4C00206C4C0020DFF88404DFF864340021CDE9DB
:207A000000017047B63F0050E81200507C4C002084CB0100BC4C0020854C0020F44E00206C
:207A2000EC49002070B5DFF814442078092818BF0A2801D0212070BD00F043F92078DFF8F1
:207A4000301409280CD1DFF80C0400888880C0480078FEF7DAFB0021002004F025FC1BE0C2
:207A60000A2819D1DFF81024538810889688CB801D1875198D809279802A18BF812A0FBF2E
:207A80007F22DFF8FC3393F90030D21A0A72012104F00AFCFEF782FB0020207070BD0000B0
:207AA000744C0020984C0020964C0020B04C00200C4F00201C4F00202DE9FC4B834617463B
:207AC0001C46DFF87C930A9A0B9B00203D0089F804000CD0012F05D0032F18BF022F0AD03D
:207AE000042F35D1A3B3150018BF012A30D1032F18BF022F09D143F66175ABF1A000A84296
:207B00003CBFA1F1A000A84222D23D0018BF042F09D143F6E175ABF12000A8423CBFA1F177
:207B20002000A84214D2594512D3002C18BF012C0ED10D9D280018BF012D03D0022D18BF13
:207B4000032D05D1DDF83080072118EA010F01D112202DE0CB4EB07B012808BF0C2027D0F8
:207B6000012F18BF042F06D1864800F8042B0622194601F05BFD08F00700F074B7743575F7
:207B80001CB934710622C04904E0012C06D134710622BE4906F1080001F048FD012F08BF52
:207BA0004FF0000BA6F810B0012089F804000020BDE8F68B104F00207C440020944C0020D2
:207BC00084440020C44C0020F8B59C4C2178092918BF0A2950D00B291CBF0C290D294BD06E
:207BE0009749097900296AD00028A64D42D0012865D1A87B01283FD0A87C01001CBF0128B0
:207C000004280ED104F054FBFD21084234D1A0480078010053D08B494978814201D10920D2
:207C2000F2BD012000F05FF9286000260120A87304F042FB1821974871434718387B40F003
:207C400080003873A87C012807D026B900F02BF900F5C87000E00020B860761C032EE9DB16
:207C6000207828B9A97C8C48405C207004F0ACFA0020F2BDA87B08B92120F2BDFFF79BFC9C
:207C8000064604F01DFB012804D004F0D5FA2968884203D100F015F8012700E00027002051
:207CA000A873284604F088FA207800281CBF002F04F08AFA7949096830468847D8E712201A
:207CC000F2BD40F20240FEF7FDBB017841F08F010170C17841F02001C170817841F0300112
:207CE00081700020704710B15649497801700020704738B50546514800780C280C4606D1AD
:207D00004F49C86809694031096888470DE00A2802D15948807908E0284604F0BDFA0100EA
:207D20000ED100F00EF890F87400C0B2802818BF81280FBF7F2052490978401A2070002045
:207D400032BD404840684FF49071694308447047B94C00208C4A002070B506460C461546D8
:207D600004F09AFA01000BD1364840684FF49071714308444FF48E7108440470458000204D
:207D800070BD00009C4C002002000CD02C4A9278824208D3002918BF012904D1124A1170D5
:207DA0001049FFF790BB122070470000E84E00203B4B10B1012803D00CE01980002070474B
:207DC000188810701888000A5070C02090708620D070F3E7122070478B4C0020864C0020A7
:207DE000BA4C0020874C0020884C002010B5044604F052FA010015D104F01EFA0078802814
:207E000004D004F019FA0078402801D1FFF759FF0C4840684FF4907262431621104404F022
:207E2000E3F9002010BD000004000940BB4C0020894C00208A4C0020BE4C0020B84C0020CC
:207E400050460020B04C0020D04E002080440020284E0020204F0020A84E00200100008072
:207E60005D880100784D002029417671404E0020DC4E0020844E0020C44E00200200008048
:207E8000C04C0020EC4900206C4C0020744C0020BC4C0020244C0020C0D900108444002060
:207EA000984C00207047024800683C30006800476046002070B50021FF226048604B09E0D1
:207EC000182486684C43264400257570491C85682A55C9B21C78A41CA142F1DB0021827013
:207EE0000180416070BD10B50023544A916818245C4321444C78D4B90C78FF2C02D05468E6
:207F0000A14214D0087000234B604B6101234B7053780343537013785B1C1370DBB2012BB7
:207F20001CBF8028402800D15160084610BD444909785B1CDBB2891C8B42D7DB002010BD96
:207F400010B53E4A9268002118234B43D45C844202D1D018407810BD00F017F8F4DB0020CC
:207F600010BD10B5354A9268002118234B43D45C844202BFD3185B78012B01D1012010BDAB
:207F800000F003F8F1DB002010BD2D4B1B78491CC9B29B1C9942704710B528498B680022BE
:207FA000182151435C5C844202BF59184C78012C01D1084610BD22490978521CD2B2891CE3
:207FC0008A42EDDB002010BD1CB504461B4844606069010018BF80476068017B01F00F0151
:207FE00002290CBF8068FFF75EFFA0602078802818BF402811D11348002101704170817060
:20800000C170017141718171C171017241728172C17201734173C173016100210A480B4B14
:20802000CDE9000103226168094C0A482468006808342468A0470849088013BDF44E002046
:20804000BC4C0020704E0020020480805D880100604600205C46002058460020DFF8A80663
:208060008178FF2900D170472DE9F84F40684FF4907251434418DFF89406A17900683822D0
:2080800051430844009004F20B100178012908BF417800F08F8004F17405287B022804BF3F
:2080A000002028734FF48C702618F18808001CBF307901F003FC60892081DFF85406817ADD
:2080C00090F807C090F80C90C37A427B01EB0C0ECE449E4402EB0E074FF4877EA6441FFAEC
:2080E00087F8BEF804707F1CAEF80470BEF800704744AEF80070BEF80270CF19AEF8027033
:208100003768DFF810666FB196F80EA037F81AB0D84427F81A8007EB4A08B8F84A70CF19B3
:20812000A8F84A70BCF1000F08BF002B04D1B9F1000F08BF002A23D02189E2895118A18125
:2081400000212174217F012904BF618CE183417859B101212177A978002904BF297B002934
:2081600003D1A97E09B9618CE183009924310A7C130028D0022A04BFC27A002A1FD121E02C
:20818000E28339B100212174217F012907D1618CE18304E0BEF80610491CAEF8061021896C
:2081A000A3899942D3D1207C08B1052901D0082100E03E212046BDE8F44F04F015B8427A8D
:2081C0000AB102220A74C37BDFF84C25DB0707D50169183101612368D9600021516107E06B
:2081E00052690A602268B168D1600021E1832177DFF828154969097889074CBF807B8120EB
:208200002870204600F062F901280ED001212046FDF74EFD2046FCF7B9FC00F008F8012820
:2082200003D0BDE8F14F03F0CFBFBDE8F18F2DE9F047DFF8D404416880784FF4907250436B
:208240000C18DFF8C804A17900683822514304F1680546182868006804F18E0708B10020CC
:208260000CE0A87B002804BF287E002807D13878002804BF207F012801D1608CE083208931
:20828000E18B0818401C6081204604F01DF801281EBFDFF88C040078012801D100F010F9CD
:2082A000287E01280CD16A8B6189208904F010F830B121896289481C82421AD06A8B0FE022
:2082C0003878012815D17A886189208904F000F800281FBF2189481C6289824209D07A88C0
:2082E000824206D0501E608180B203F085FF401EE08306F1240999F8100008B100F0E0F8E5
:2083000004F12E07287E012801BF688B2189491C884235D1608104F18401204603F058FFC7
:20832000688CE189608400202077E08360890818A0812189688B03F05FFFB988EA8B01FB17
:208340000028288CAA8C884204BF3B899A4202BF698CFB88994205D0130941086A8CA07981
:20836000FCF75CFD287F3870288CB880688CF880A88C3881204603F02FFF0220287601E0F5
:20838000B7F80480E38B2268DFF89863D2F80CE0581C00FB08FC40F6C41000FB0CF18E44E3
:2083A000C2F80CE03668DFF880E33678BEF80080DFF85C23B609032E12D1D67BF60748BFDD
:2083C0004FF000080CD408F101061FFA86F8B8F1010F12BF668AB9F80E6006F2DC5600E03C
:2083E000668A06FB0CF64FF4C87AB6FBFAF6761C6661AEF80080C4F818C084F82030C54B75
:208400002668D3F808E0C6F810E0D4F81480D6F80CE0AEEB080EC3F808E0C6F808E01E7BC2
:2084200006F0F00646F002061E7300265E80BA4ED4F81480D6F814E00EEB480EC6F814E052
:208440002D7E022D03D13D7800FB05E57561D27BBD88D20719D59A68A2F5A8629A60511A9D
:2084600027683961BA60716901F5F6617161C9F80010AE4900FB0510F061AD480078012801
:208480001EBFA648806A40780EE0716900FB05F2A1F5E661A2F516729142EAD3082120469A
:2084A00003F0A2FE012009E0F072A24920684360072008702046FDF727FF0020BDE8F0874C
:2084C0000020E0832089401C608170472DE9F04782460AF1060682B08C48317800688C4C71
:2084E0003822514300EB01080AF1E3090AF1E8070AF1660507E0504603F032FE012835D194
:208500005046FDF777FC687D80B3687C02281BD004282ED0052842D0062871D00728EAD08C
:20852000092800F0BF800B2800F08F800C2800F0C6800D2800F09E80FC2817D0FD2800F0DC
:20854000DD80FE28DFD111E0287C012808D1E07800285AD01621504603F046FE012006E09C
:208560005046FDF707FF2874E88A28830020BDE8F687287C01280ED1A078002845D0FC2152
:208580005046FDF755FC30780AF1B4020AF1AC0103F0A2FEB7E7504603F0A2FEE3E7287C37
:2085A00001280FD1A07828B101208AF89200002038607860B87A01286BD106215046FDF7B4
:2085C00037FCA0E799F80000012809D15046FDF74EFB0128CAD10020B87201202874C5E703
:2085E00099F801000028C1D00AF1C3020AF19C010AF1D30003F078FE012089F8000082E796
:20860000287C01281DD1A078002842D0B08B30835046FDF7EFFB00F09BF80120A871397A7B
:208620003078012903D1002103F062FE03E00122002103F061FE002038723873F872B8729E
:2086400061E7504603F05CFE8DE7287C012805D1F87A012808BFFC21B0D01AE0504603F056
:2086600053FE0128BBD10020F8728AF892000120287448E7287C012810D1A07830B10020A3
:208680008AF8920000F064F80120A871E078002810D100F057F8A2D122215CE7504603F01E
:2086A000D3FD60E7287C012805D1A0780028F0D0B08B308324E75046FDF7A8FA53E7287CFD
:2086C000012815D1787E012808D1B87E012804D100F032F8002003F01BFE11E700F032F807
:2086E0007FF444AF00F028F8222003F011FED3E70120F876504603F00FFE34E798F8201006
:208700005046FDF795FBB2E7B04C002064460020704E0020E04D0020384D002084CB0100A0
:20872000894C002070460020CA430020F0DDFFFF864C0020B84C0020388C0090FB8B3A7FCD
:2087400031787047288B401E288380B20028704701202870504603F0E3BD00000120704732
:2087600000B583B00820ADF800001E2000F00CF803F06EFD07BD00B583B00820ADF800003B
:208780001F2000F001F807BDADF802004FF480300249096801906846084700007C44002029
:2087A000704738B50446002506E0EDB204EBC500001D03F0B9FD6D1C2178E8B28842F4D35A
:2087C0000020607032BD01784078081AC0B27047F0B50346002001E0401CC0B21C78A0420B
:2087E00015DA03EBC0046579ED07F5D5002566194F5DB679BE4202D16D1C062DF7DB062D29
:2088000002BF6479C4F340049442E5D1F0BD1020F0BD10B50446FFF7DBFF102807D004EBCC
:20882000C000417941F004014171002010BD1F2010BD002107E000EBC102491C537903F003
:20884000FB035371C9B202799142F4DB00207047DFF85C1340F2AD200880704710B5144644
:20886000600548BF00F0FCF8200248BF00F006F914F0030018BF00F00FF8002C02D5BDE813
:20888000104000E010BD80B58220FDF7A0FEBDE80140FDF79BBE0000F0B5C648C64C0378FF
:2088A000C648C74AC7490D2B83B040D8DFE803F0CD07070707C8C858C88A8AA8A8AC04603F
:2088C00041F20445C0494C88AC421FBF4E8BAE424E8EAE4203D11580BC4901606AE0022C97
:2088E000BB4D14804FF4A05641F2024736D94FF4806CB4EB0C041BD0241F012C1ED94FF4A5
:208900007F7CB4EB0C041BD04FF44061641A0FD0A41E012C0CD9241F0AD0641E012C0DD9FB
:2089200040F2F930241A012C18D9241F14D087E0022B14BF1680A74D05603BE0A64DFBE713
:20894000A64A927C012A03D14F804F834F86F3E74E804E834E86EFE7872072E0832070E095
:208960009F498978FF2970D09E49046040F204444B8813801B1B012B9B4A66D94FF47F74BF
:208980001B1B0FD04FF440641B1B032B84BF5B1F012B0AD99B1E012B57D940F2FD341B1BFD
:2089A00005D102E041F201434B80026002E08520FDF70DFE03B0BDE8F0408C4800780121DF
:2089C00000F07CBF4888108040F2044290421CBF41F20842904238D041F60402904211D19F
:2089E000834C844A2468844800680023CDE900230834824B24680322A04781490880F7BD77
:208A00004888108085201CE04888108002280DD940F20442801A18D040F6FC72801A05D0D8
:208A2000083812D04FF47F72801AEBD1887B801CC0B2B528A8BF6620887300204880F7BD18
:208A40008420BDE8FE40FDF7C2BDF7BD6D480121017058490978092904BF002101707047C0
:208A60005F488278FF2A07D040684FF490735A4300211044FDF71CB9704770472DE9F84FC1
:208A8000DFF8308198F80000042824D9801F22D0401E012800F28580514DA878FF281AD0B7
:208AA00069684FF49072504301EB000A0AF16C07786803F0ADFB04462079032876D1A068D1
:208AC0000021A16000F1020B0178467811F0030902D10020207169E0B9F1030F0BD036B1E7
:208AE0003878002804BF9AF8E30001280ED04648007801285AD09AF8920070B1361F5B46CB
:208B0000F2B249465046FDF7E6FD30B90AF20B103D2141700121017048E0B9F1030F2CD033
:208B20003A4840690078810708D5C0074CBF03200020F6B280191BF8000000E08120387299
:208B4000334800781C2811DA387A802818BF81280FBF7F202F490978401A40B200904B4646
:208B6000A878F2B25946FCF7E3F811E0A8784B46F2B25946FDF701FA0AE098F80000082846
:208B800003D059465046FBF759FE584600F021FD786803F0CDFB21465046BDE8F44FFBF766
:208BA000DEBFBDE8F24F8620FDF711BDBDE8F18FCE000021B84C0020E1D90010C44C002098
:208BC0000A4F0020284E0020244C0020335701006F5601000D56010051CD0010EC490020BE
:208BE000B04C0020E04D00205D800100844C002060460020020000805C4600205D8801004E
:208C000058460020072002408A4C002084CB010050460020C04C002010B50400214804705F
:208C200000202149087000202049087000202049087000201F49087000201F490870FCF73D
:208C4000CBF800201D49087010BD70B504000D00280416D51348007800F05BFD0600002EEA
:208C60000BD03078032802D03078012802D1F06800F0AFFC300000F0FAFC95F4004080B2CC
:208C800000E0002070BD08490870704707490870704707490870704706490870704706495C
:208CA0000870704728440020294400202A4400202B4400202C4400202D440020284F002097
:208CC0001448B0B5B0F1FF3F01D003F05DF9124D1248A84210D01248124CA0420CD0001BC6
:208CE000C71054F8040B10F8011B55F8212054F8041B90477F1EF4D1F8F78DF80A4D0B4CCA
:208D0000A54205D002E054F8040B8047A542FAD1B0BDC046FFFFFFFFB8CB0100C0CB010062
:208D2000D0CB0100C0CB0100000000000000000030B502FB01F403FB00444FF00005E2FBD1
:208D400000542146284630BD002A4AD05FEA000C8B071CD1830722D1102A08D370B4103AE5
:208D600078C978C0103AFBD270BC103238D0042A2CD3082A05D30C2A24BF08C908C008C933
:208D800008C008C908C092072AD0920F22E00B780370491C401C521E22D08B07F7D1C307FF
:208DA00014D18307D8D0121F12D308C903801B0C4380001D121FF8D20AE008C903701B0ADD
:208DC00043701B0A83701B0AC370001D121FF4D2121D05D00B780370491C401C521EF9D167
:208DE00060467047002213460A46194671B510F0030F0BD0002A82BF00F8011BB2F10102B4
:208E000010F0030FF6D1002A08BF71BD11F0FF0141EA0121042A18D341EA0141082A0FD372
:208E20000E46102A08D30C460D46B2F10F0312F00F0272C0103BFCD812F0080F18BF42C019
:208E400012F0040F18BF40F8041B12F0020F18BF20F8021B12F0010F18BF017071BD2DE912
:208E6000F0411C4615468C4208BF854282BF00230022E5E0002C08BF002D0AD100290EBF6C
:208E800000286FF000006FF0000100F0E1F8BDE8F0815FF000085FF0000E002C08BF8D4296
:208EA0009CBF2C1C0025070C47EA01470E0CB44208BFBD429EBF5FEA044444EA15445FEACA
:208EC0000545070A47EA01670E0AB44208BFBD429EBF5FEA042444EA15645FEA0525470893
:208EE00047EAC1774E08B44208BFBD4200F29380870847EA81778E08B44208BFBD427CD894
:208F0000C70847EA4177CE08B44208BFBD4266D8070947EA01770E09B44208BFBD4250D815
:208F2000470947EAC1674E09B44208BFBD423AD8870947EA81678E09B44208BFBD4224D86B
:208F4000C70947EA4167CE09B44208BFBD420DD8E60146EA5566EF01B14208BFB84201D3A6
:208F6000C01BB14158EB08085EEB0E0EA60146EA95664FEA8517B14208BFB84201D3C01B62
:208F8000B14158EB08084EEB0E0E660146EAD5666F01B14208BFB84201D3C01BB14158EB5D
:208FA00008084EEB0E0E260146EA15762F01B14208BFB84201D3C01BB14158EB08085EEB49
:208FC0000E0EE60046EA5576EF00B14208BFB84201D3C01BB14158EB08084EEB0E0EA60002
:208FE00046EA9576AF00B14208BFB84201D3C01BB14158EB08084EEB0E0E660046EAD576A9
:209000006F00B14208BFB84201D3C01BB14158EB08085EEB0E0EA14208BFA84201D3401B11
:20902000A14158EB08085EEB0E0EA34208BFAA423EBF2D0A45EA0465240A89D37346424667
:209040001E4617460B46024631463846BDE8F0817047EFF3108062B6704700207047EFF3FA
:20906000108072B670470020704700000246A948006800E0006828B103899942FAD1837AB9
:209080009A42F7D17047F8B514460646FFF7EEFF0D46002818BF446016D1102002F093FEAF
:2090A0009C490F68002808BF00200DD086720581446000220260C26017B90F4603E00F4643
:2090C00039680029FBD13860F8BD08B1002101817047F8B5904D064628680C4680470746CE
:2090E00021463046FFF7C2FF002814BF446800246968384688472046F8BD0EB50820ADF848
:2091000000001220ADF80200844801686846884701980EBD2DE9F84F804D04462D1D286812
:2091200080477C4E014606F10802106820181060084669688847306800285AD04FF0000817
:209140000746B146C2462868804756461FFAA4F3834683B95FFA94F36BB93979E0B2884209
:2091600004DD79682046884209D20AE03879E1B2401A387108E079682046884201D33146AD
:2091800001E07968091A7960B88878B9FB8853B9FB6843B13B8933B1B87A194600F08EFB08
:2091A000F8687860B88808B9FB880BB13B896BB9B8F1000F04BF3868C9F8000003D0386800
:2091C000C8F8000038683E46074601E0B8463F6869685846884756B1B08828B9F08818B931
:2091E000B07A318900F06AFB304602F0EEFD002FA9D1BDE8F88F2DE9F041FFF77EFF4949C2
:20920000474F0D683C68B5F57A7F13D04FF47A78001B00234246A5FB0001FFF720FE06461D
:2092200000234246FFF784FD2A460023FFF717FE001900E0061B3860304602F09BFDBDE817
:20924000F0812DE9F04105463248006817460E4608B9FFF7D0FF344C6068804780463146A6
:209260003A462846FFF70FFFA168074640468847002F14BF00200820BDE8F081F8B52A4CCE
:209280000646241D20680D468047074629463046FFF7ECFE051C01D0FFF717FF6168384648
:2092A0008847002D14BF00200620F8BD2DE9F0411E4D07462D1D286816460C4680478046D0
:2092C000214632463846FFF7DEFE041C18BFE660696840468847002C14BF00200820BDE810
:2092E000F08110B50B4C0020A060FFF706FF606010BD08480068002808BF002107D00C4945
:209300004268914288BF111C00680028F8D108467047C04670440020804400207C44002060
:2093200074440020644700207C4400207C4400208EC2F528ADF1080D01208DF800009DF86F
:2093400000000028FBD102B0704710B5FFF787FE002400B10124204610BD10B5FFF779FE11
:20936000002400B10124204610BD114808B580471248104902680A6042684A608068886038
:209380000D48C860C030086108BD0D4808B580470A480C4902680A60426880688860064816
:2093A0004A6000F11802CA6000F5DA70086108BD014C01102C4F002078C401007C4400204B
:2093C00001500010E84800200649086820F4806008600004000C40F4803008600248486073
:2093E0007047C046148002400401010008B5FFF7EBFF11490120086010490020086008BDAE
:209400000F480C38006870470D4A08B51068C00A01D2FFF7EBFFA2F10C0000684008FAD36D
:209420000848006841680220884704490A6882420CBF0548086008BDA80250423044002042
:2094400014800240CC010010EFBEADDE70477047084908B510B90A78012A03D0C91C0A6805
:209460000021904708BD00B904480349486000234B70704749470020484700204F9401005E
:209480001849042824D005281DD0062816D00F280FD0102821D311492F2805D930380122C1
:2094A0000B468240181D17E0103801228240084612E00B48026822F002020DE00846026888
:2094C00022F4802208E00846026822F4003203E00846026822F480320260704780E100E02F
:2094E00010E000E024ED00E0144904281ED0052818D0062812D00F280BD010281AD310497F
:209500002F2887BF30387C3910388039012282400FE009490A6842F002020AE00A6842F430
:20952000802206E00A6842F4003202E00A6842F480320A607047C04610E000E024ED00E0A5
:2095400080E100E07047704708B50221684602F0F3FEBDF8000008BD01463048006800E06A
:20956000006840B100F108028A42F9D88288821808328A42F4D3704710B503460C46FFF77C
:20958000EBFF58B1191B00F108021C1BA24205D8828880180830884228BF0B1C184610BDD4
:2095A000F8B51F4C0546241D20688047064605F1080080B202F007FC071C05D01749BD80B2
:2095C00008680F60386008376168304688473846F8BDF8B5134C0546241D206880470F4955
:2095E00006460868A8B100270A4600F10801A94204D8818841180831A94204D2074600680D
:209600000028F2D105E007B917460168396002F0DCFB616830468847F8BDC0464C46002017
:209620007C4400207C440020FFF7E0BB034610461A4628B111F8013B401E02F8013BF9D15E
:209640001046704710B5041C05D004F10C0080B202F0B9FB08B9002010BD002101600481B5
:20966000FF2383720C3010BDB9480078704708B5002808BF052009D010F8021CFF2918BFCB
:20968000042003D10C3802F0A0FB002008BD10B580F08004022C01DB00F090F9AC48C01C10
:2096A000005D10BD28B142B1401E10F8013F994201D000207047521EF7D10120704710B5B6
:2096C000401E491E4AB111F8013F10F8014FA34218BF002002D1521EF5D1012010BD70B531
:2096E000BE4D044628680E468047BD4A1168A14219BF54F80C1C46F80C1C54F80C1C116070
:20970000FF2604F8026C002144F80C1C6968884770BD2DE9F041B14E0546306880478046B2
:20972000AF48006800273C46844212D010F8021C8D4208D134B160B128464FF4004100F0D3
:20974000BDF80BE0044604B9074650F80C0C0028ECD128464FF4004100F0FCF81CB12046C7
:209760003946FFF7BCFF7168404688472046BDE8F0810346104641181A46491E28B111F86E
:209780000139401E02F8013BF9D11046704738B5C34C0546241D206880470021904A45F815
:2097A0000C1C116811B9156006E0114651F80C2C002AFAD141F80C5C6168884738BD38B5FB
:2097C000B74C054660688047614A916845F80C1CA1689560884738BD70B5164605460C1CED
:2097E00008BF052525D035F07F0001D000F0E6F80A2DA8BF032507DA54F80C0C18B914F858
:20980000020CFF2804D005252046FFF730FF10E0012E04F8025C03D02046FFF7B8FF02E049
:209820002046FFF7CCFF28464FF4004100F046F80025284670BD70B502460D4632F07F00C0
:2098400004D110460022FFF7C7FF70BDFFF70CFF3F498C78AE1EFF2802D0496A4018847A77
:20986000FF2C02D100F0AAF80DE01046FFF70FFF01462A46FF203070204600F008F820B174
:209880002846FFF7F4FE012070BD002070BD00B5ADF1140D8DF804000823ADF800308DF855
:2098A000061000208DF8080006237D4803920168ADF802306846884705B000BDF8B506463A
:2098C0000C4636F07F0014D10A2E10DA744D68688047B249096831F81620144321F81640A1
:2098E000A9688847AE48006800F049F82EE00320F8BD0420FFF7A6FE071C08BF042026D051
:209900004FF6FF7038807C80FFF7AEFE10498C78BD1EFF2802D0496A4018847AFF2C06D101
:209920003846FFF7A4FE00F049F80120F8BD3046FFF7ADFE01463A46FF2028702046FFF719
:20994000A6FF18B13846FFF792FEEEE70020F8BD5047002070B506460D460A2E0DDA914C74
:20996000606880478D490A6832F81610A94322F81610A1688847002070BD032070BD0EB55C
:2099800008210190C748ADF800100B21ADF802100168684688470EBD70B5C24C0546241DF6
:2099A000206880477E4906460869A84202D10868FFF7E5FF61683046884770BD08B50520B0
:2099C000FFF746FD0820ADF800000C20ADF80200C54801686846884708BDC046804400200C
:2099E00058470020C14A08B5002112F8013FFF2B04D1107041F08001C8B208BD9842F9D062
:209A0000491C0229F1D3FFF7D9FFFF2008BD10B504466088002818BF6FF0010008D1A079F8
:209A2000FFF7E0FFE071FF280CBF6FF00300002010BD10B5142002F0C6F9C64C6062606A77
:209A4000FF211422FFF7F0FDFF210222E01CFFF7EBFD10BDC04A1268115412189172704715
:209A6000BD4A12688018817270470EB50820ADF800001420ADF80200B848016868468847D2
:209A800001980EBD0EB50820ADF800001520ADF80200B24801686846884701980EBDC046AC
:209AA0007C44002010B5AC4C0020243CA060FFF718FC02F038F9FFF7BCFF02F0F5F9FFF7D5
:209AC000D4FF6061FFF7DEFF801EA06110BD10B5A14C0821ADF1180DADF80010243C04906C
:209AE0001B21ADF80210E0690290012101919C499A4803910168684688470299E16106B010
:209B000010BD7FB506460820ADF800000720ADF8020092480D4601681446684688479DF85B
:209B2000041031709DF8061029700299216000907FBD894909680022491E11F8013F984255
:209B400008BFD0B203D0521C0A2AF6D3FF2070470EB5082101908148ADF800101C21ADF8CB
:209B600002100168684688470EBD10B5ADF1180D01907B48774C0390E06904910822029056
:209B80007648ADF8002013220168ADF80220684688470298E06106B010BDC0468844002010
:209BA000604700207C4400202DE9FC47FFF7A1FB071C03D0FFF71FFB4FF0FF3700241CE078
:209BC0009DF80500FFF7B5FF0546FF2D13D0009810F8080CFFF706FF009911F8062C012A39
:209BE00003D0022A08BF887000E0087000992846FFF721FE01E0FFF7E1FE01A80DF10501D0
:209C00006A46FFF77EFF0028DAD056480168804631F81460544D26B9641CE4B20A2CF7DB47
:209C200023E00A2C21DA28688047D8F800106600002231F806A08A5369688847DFF8149169
:209C40004A48514650F8242089F80040204690470446FF2089F8000028688047D8F8001030
:209C6000725A1443745269688847FFF742FB0646B74215D03E4C06B93E4E2068B04238BFB8
:209C8000061C2868804707466068FFF761FFA1683046491CA160FFF768FF69683846884780
:209CA000BDE8FC877C4400200EB50820ADF800000A20ADF802004FF0FF3001902748016864
:209CC000684688470EBD2A4808B508300068FFF7FEFE08B1FFF772FEFFF766FFFFF7E4FF28
:209CE000FAE702F047B9C0467C4400205247002070B50D460646A8B202F065F8041C03D092
:209D000031462A46FFF792FC204670BD022908BF01780CD0032908BF017805D004290AD1B5
:209D2000C278017801EB0261827801EB0241407801EB002070470078704700F8011B0A0A26
:209D400000F8012B0A0C00F8012B090E00F8011B7047C04650470020744700207C4400204B
:209D600099990100884400208044002050C40100684700208EC2F528407920F03F00C0289F
:209D800004D040280CBF012002207047002070477FB5064623250024E8B210216A4601F093
:209DA00072F868B96846FF211022FFF77BFC38B968463146F4F7CAFE002808BF201C04D0E3
:209DC000641CAD1D0A2CE7DB0A2000907FBD1FB50A280C460FDA74B1410001EB80016A4687
:209DE0002031C8B20E2101F04EF820B9204669460622FFF71BFC00901FBD70B5B44D064631
:209E00000024284631460622FFF759FC002818BF201C04D1641C0E350A2CF2DB0A2070BD99
:209E200070B5AB4C06460025E41F204631460622FFF745FC002818BF281C04D16D1C0E3473
:209E40000A2DF2DB0A2070BD70B5144602460846FFF792FF0E4632F002011AD0032A18D093
:209E6000B8B102280AD0012806D13046FFF790FF05460A2D08DB18E00A2516E03046FFF78C
:209E8000BCFF05460A2D10DA7CB12146FFF79FFF0BE03046FFF7C4FF05460A2D05DA24B123
:209EA000204631460622FFF7C1FB284670BD011F4FF6FF73042031F8042F5A400A808A78D3
:209EC000401E82F0FF028A70F5D17047091F042231F8043F984208BF081C02D0521EF7D1B1
:209EE00000207047B0B505460F4614466800ADF1200D0E2100EB85006A462030C0B200F0F8
:209F0000C2FF00282ED16846FF210622FFF7CAFB40BB7035E8B210210DF10E02054600F0F4
:209F2000B2FF002832D10DF10E00FFF7C0FF67B90DF10E0000211022FFF7B4FB30BB0DF177
:209F40000E001022FFF770FB16E038460DF10E01FFF7BCFF48B92CB100200DF10E01FFF72D
:209F6000B5FF08B9002012E0078081788C420DD084700CB9002101800DF10E00FFF797FF3C
:209F8000284610210DF10E0201F02EF9012008B0B0BD70B50E464FF6FF71154681420FD08B
:209FA000F8F751FFA8B14279811D10460022FFF74BFF0A280DDA31462A46FFF793FF70BD43
:209FC000002431462A462046FFF78CFF641C0A2CF7DB70BD70B5B14CE069216A8588ADF139
:209FE000180D61B904F11000A24A00904FF6FF7102230120F6F7A8FA0146216221B304A8CD
:20A0000000900026019602230293FF220392228A28460DF11203F7F763FF58B99DF813004D
:20A020009DF81220216A12EB002204D049892846FFF7AFFF216A228A084633464FF6FF7144
:20A04000F6F7D7FA01462162002001B9012006B070BD10B5914C0C34206920B12069FFF7DF
:20A0600006FB002020610A20207010BD8B4836300078704770B5894C002504F1500630466F
:20A08000FF210622FFF70EFB002818BF281C09D16D1C0E360A2DF2DB607B10B1FFF7E6FF14
:20A0A00070BD0A2070BD38B502F04AF97B4C0A2550342046FF210622FFF7F4FA18B90020FD
:20A0C000214602F041F96D1E04F10E04F1D138BD5B48002070B5714D0A26002450352846B7
:20A0E000FF210622FFF7DEFA08B9641CE4B20E35761EF4D1204670BD08B5FFF7EBFF02287D
:20A10000B4BF0A20022001216A468DF800000520F5F760FF08BDC54AB0B50A2402F10A0352
:20A12000214613F8015DA84202D0491EF9D101E0491ECCB2092C09DAA018C4F1090741784E
:20A14000037801707F1E00F8013FF8D1092C03DA05200A2101F048F8B0BDF0B54F4CE569E7
:20A160000F460646ADF1140D55B9F6B1EFB1FFF757FE0A28207304DBFFF77CFF207300E057
:20A18000207B0A2811DA002D4DD0AA68002A3ED12A69002A2FD16A690ABBEA683AB9A07ABE
:20A1A00008B1FFF780FFFFF7A7FF01205FE0410001EB80012431C8B2102101F015F8E76979
:20A1C000217BFA68480000EB8100103225300421C0B201F009F8E1690020C86046E04100B4
:20A1E00001EB80012331C8B2102100F0FDFFE169002048613AE0410001EB80012231C8B25F
:20A200001C2100F0F1FFE169002008612EE0410001EB80012131C8B21C2100F0E5FFE1696B
:20A220000020886022E0410001EB800132462031C8B20E2100F0D8FF207BFFF76CFF684683
:20A24000FF211022FFF7F0F9207B10216A467030C0B200F0C9FF217B0E220801A0EB4100E6
:20A26000201831465030FFF7E1F9E761002005B0F0BDC0461C1201002DE9F04F91468846E6
:20A280008246ADF1A40DF8F7DEFD044CE67894F809B0257A2779002855D001E00448002011
:20A2A00068460021A422FFF7BFF92801279A8E498DF8046005F0030300F48076ADF800A087
:20A2C000002F01EA020143EA0102864B8DF8A0B005F0040546EA020100F4C06603EA010250
:20A2E00046EA020045EA0005279504BF00208DF8050008D08DF805700DF1060004F14001C3
:20A300001022FFF793F9607930B1B8F1000F03D0279941F002012791002100B10121A77885
:20A320009DF89900002F41EA00018DF899100CBF002004209DF8991008438DF89900494621
:20A340006846F4F739FD29B0BDE8F08FF0B5BE4C0546207BADF13C0DA84209D12078012137
:20A36000FFF7F8FA20780221FFF7F4FAFFF771FE6C0004EB85040E210BAA04F1200004F11F
:20A380002007C6B2F8B200F07EFD00284BD10BA8FF210622FFF786F9002844D104AF1C2227
:20A3A0003846FFF741F96846FF211022FFF73CF90BA8FF210E22FFF737F930460E210BAA41
:20A3C00000F012FF06461C2104F121003A46C0B200F00AFF1C2106433A4604F12200C0B263
:20A3E00000F002FF102106433A4604F12300C0B200F0FAFE102106433A4604F12400C0B27B
:20A4000000F0F2FE2534042106433A46E0B200F0EBFE703510216A4640EA0604E8B200F066
:20A42000E3FE204300E000200FB0F0BD3A48002010B50024204628B92046FFF787FF641C38
:20A440000A2CF8DB10BD2DE9F041DFF8FC8100270A25202608F1500430460E21224600F0A5
:20A4600012FD50B12046FF210622FFF7DDF8E01DFF210622FFF7D8F867736D1E04F10E04DC
:20A4800006F10606E8D198F80A0008B1FFF70BFEFFF732FEBDE8F08170B5F5F797FCF8B91D
:20A4A000694CE07A01280ED000252B342E4614F8010F012803D13046FFF748FF2570761C9B
:20A4C0000A2EF4DB08E0FFF7B3FF002104F12C000A22E172FFF7A8F800F0B6FEFFF7B3FF42
:20A4E00070BDC046FBF9FFFFFCFEFFFFF0B50446554DA178A869ADF1140D891F00F0B880F5
:20A50000C91E00F0A380491E5AD0491E3FD0C91E35D0481E40F0AE80A879E97958BB687814
:20A5200040B3A088F8F78FFC071C00F0A380A07A40080CD3787950B1E168890A07D2B91D92
:20A5400001AAFFF781FC002808BF032113D0A088797904F10802FFF78FFEA869002800F022
:20A5600089804368002B00F0858000210A46A08898477FE00521A088F4F76CFC7AE000280D
:20A5800078D04368002B75D062780221EFE708B1076867B9206900280CBF686901206189E5
:20A5A000F4F781FC002865D060890121E4E7206900906189227B637BE01C3C46A04759E0E4
:20A5C00066780027002E32D1A17949082FD3EE696EBB01A839460E22FFF726F8606940B92A
:20A5E000A088F8F730FC002844D04279801D014602E061690A7C11318DF80A2001A8062249
:20A60000FFF714F8A0799DF81110C0F3800008438DF81100214601A8FFF79FFD28B9287832
:20A620000221FFF74BF9384625E0A869152708B34368FBB1A088627801219847D7B1A8693F
:20A64000436803213A4692E704480020E078211D0022FFF7F9FB0A280CDA410001EB80005F
:20A6600004F10C0225300421C0B200F0BDFD01E0FFF712FF012005B0F0BD0246107920B92C
:20A680005088D1881289FFF784BC7047014601F108000979F6F732BD10B501780124B03916
:20A6A0000AD0491E05D01F3908D1FFF71FFF044604E0FFF7E2FF01E0FFF7E8FF204610BD49
:20A6C000B0B5B54D28780C46E10BC90336D1A00824D2600806D2E00828BF84F0040439D22E
:20A6E0000020B0BDFFF776FC002808BF84F001041BD0A86968B143685BB1E86980880121B6
:20A7000000229847A869EF694368B888032100229847FFF79EFC84F001041BE00020014654
:20A72000FFF71BFD18B184F00204012102E0022184F002042878FFF7C1F80BE0FEF7E9FF10
:20A74000071C05D0FFF7A8FF10B13846FEF78FFF84F40044A0B2B0BD410000B501EB8000C5
:20A76000ADF1140D20300E216A46C0B200F08BFB002814BF00209DF80D0005B000BDF0B52F
:20A780000646A448007815460024ADF1240D022808BF0124082B01D1280904D3480000EB65
:20A7A0008100213003E0480000EB81002230C7B200211C2201A8FEF737FF1C2101AA3846CC
:20A7C00000F061FB68B99DF81E00072809DB102807DC0094304605F00101002201ABF4F771
:20A7E00088FB09B0F0BD8B4B5B1E5A79002102B101219A780AB141F00401F5F7EDB92DE9AD
:20A80000F0410C46174605469846ADF1300D0021062209A8FEF7EAFA2846214609AAFFF703
:20A8200013FB05460A2D44DAFFF796FF06464346294638463246FFF7A2FF68460021142209
:20A84000FEF7F2FE6C0004EB850404F1240010216A46C0B200F017FB88B96846FF21102280
:20A86000FEF720FF58B9253404AA0421E0B200F00AFB384606F001016A46F4F779FA05ACCB
:20A8800005F1700010212246C0B200F0FCFA68B92046FFF70CFB042604AC34F8041F19B1EA
:20A8A000A2783846F7F75FFC761EF6D12846FFF732FCB8F1040F06D156480078022802D124
:20A8C0003846FFF790FF0CB00020BDE8F08138B50546104659B9504AB0FBF2F15143401ACD
:20A8E0002946F4F7E0FA041C05D0012100E000242846F4F7AFFA204638BD10B5264C2178DC
:20A90000A0612620F3F77EFF2078F6F7A1FC10BD80B507460623203F012097FBF3F25A435B
:20A92000BF1A10D07F1E012F0AD9BF1E012F04D9BF1E0BD1042908D080BD102905D080BD7E
:20A940001C2902D080BD0E2900D1002080BD12492DE9F04F8446ADF1140D8879CA7803902F
:20A96000DFF88C8200924B7891F80DB091F80A9091F809A091F807E0087A4D6902908A78C6
:20A980004879CE89019008790024ACF580670E2F04D9183F17D00BE004480020DFE807F074
:20A9A0003432302E2D2724221F081C1A191815C0BCF1280FA8BF022428DA6046F3F72FFFA5
:20A9C0004146088022E0D94602E0FFF783FB14E0CA46D646CDF80CE00398029002E040468B
:20A9E000056013E0029801900198024608E0404640311022FEF71AFE08E00090009B03E0DF
:20AA00001046FAE73046DBE740460370204605B0BDE8F08F0548002040420F002DE9BC437C
:20AA2000DFF8D4C1DFF8CC81DFF8D491DFF8D4E1174602460024A2F58060102802D918381B
:20AA400015D00AE0DFE800F0ABA49D958D847D776D625B544B3F09091DC0282A31DA02296B
:20AA60002FD139881046F3F7CDFE04469FE0012940F09C80002F00F0998039784046001D3F
:20AA800075E0072940F09280791C68460622FEF770FE387869462246FFF7D6F905460A2D13
:20AAA0000FDAF5F793F938B92846FFF74FFC00F0CBFBFFF7C8FC7AE040460121233041553A
:20AAC00075E0022473E0012970D14F4A3978907A002891726BD13878012868D1E9E7012976
:20AAE00064D13978072961DB10295FDC40463EE001295BD139780A2958DA60463FE0012991
:20AB000054D13978022951DA604630E000294DD1F5F75CF910B9FFF78BFCC8E7012140462E
:20AB20000DE0042942D13968344888423ED340460B3001603BE0012938D139786046801C8D
:20AB400015E0012932D1397802292FDA484616E010292BD14046394610223730FEF766FD3F
:20AB600025E0012922D1397802291FDA484601701DE001291AD13978042917DC7046401CEA
:20AB8000F5E7012912D1397802290FDA7046EEE702290BD139884046401D018007E001293F
:20ABA00004D139780229D8BF1848E0DD18242046BDE8BC8310B5164C05200A21224600F0DB
:20ABC00062F938B10020C0F10901401C04F8011B0A28F8DB10BD014608B50B4801702430F4
:20ABE000F5F7E4F9FFF72FFCFFF7E4FF08BDC0463B4400200D4800200A4800203F420F00B1
:20AC0000084800200648002004480020054800203A48002013491D23090BC9B291FBF3F23F
:20AC20005A43891A00EB013000F5E8307047F8B517460D46FFF7EEFF0B4C064620688047C2
:20AC400003E016F8011B05F8011B39464A1E002997B2F6D161688847F8BD0B46014618466B
:20AC600000F03ABB00E00100804400202DE9F0470C468046E00BC00318BF84F4004437D17C
:20AC8000002C08BF002034D0DFF87091D9F80000804782465848068800250122294602FA84
:20ACA00001F73C4203D1491C0F29F8DB1BE0CB004146F501CA01001DA2EBC102A5EBC60108
:20ACC0009E1A8D1A8A1981585D194619BDB211B180184068884740462946FEF7FAF910B9DE
:20ACE000002030607060D9F80410504688476C40A0B2BDE8F08701463F480288FF2A05D119
:20AD000001807822001D0021FEF78EBC7047F8B53B4D06462D1D2868804707460F2E19DA45
:20AD2000354901EBC604241D206898B1084600880F210123B6FBF1F14018C0B203FA06F152
:20AD4000FEF79CFA0026384626606968666088473046F8BD6968384688470220F8BD2DE9A2
:20AD6000FE4F0CAF814698463E78254F01923F1D386800918047B9F1000F029004D1796814
:20AD800088470220BDE8FE8F1B4800244FF00F0B4FF0010A051F55F8080FE8B9012E0CBF43
:20ADA000184B194B1448019A008894FBFBF140180AFA04F1C0B2984770B90098C5F8009022
:20ADC000B8F1000F686018BF88F800407968029888470020BDE8FE8F641C0F2CDBDB79686E
:20ADE000029888470820BDE8FE8F1CB500240094FFF7B5FF1CBDC0467847002080440020BB
:20AE00007C440020AD9201004392010038B50546C1480088001F84B2042C1EDB20466946E0
:20AE20000422FFF704FFBDF80000854204D19DF80200241AA0B238BDBDF80210C80BC00329
:20AE400007D1081D844203DA0020FEF701FB04E0641A241FA4B2042CE0DA002038BD03B490
:20AE6000B0B504AFB8781D461446FFF7CFFF28B122462946FFF7DBFE002000E00120BDE8C4
:20AE8000B04002B070470EB51346ADF802000020ADF804000A468DF800009DE80300FFF77A
:20AEA000DEFF0EBD10B500F00DFAC4B24CB1CC4800684268CB480021904700F003FA002875
:20AEC000FBD1204610BD08B528B1CF4800684268C4480121904708BD7CB516460D460446C0
:20AEE00002E0241D2D1DA4B23046411ECEB278B1204669460422FFF79AFE68462946042205
:20AF000000F0F8F90028ECD0CE490120487008707CBD2DE9F04714460F460646FFF77AFE15
:20AF2000CA4D8046686880478246FFF7BBFF8146A20039464046FFF790FE4846FFF7C3FFED
:20AF4000304622463946FFF7C7FFA96850468847BDE8F08708B50020012269460090FFF711
:20AF6000D8FF08BD001FADF1080D80B2042814DBB0F5805F11DA00F1885212686B461A6037
:20AF8000BDF80020914208BF012007D0BDF80220801A001F80B20428EADA002002B070470F
:20AFA000F8B5AA4C241D206880470546FFF77AFF06460020FFF72EFE00F0AEF907463046BC
:20AFC000FFF781FF1FB19F49012048700870616828468847F8BD08B54FF4801001226946D5
:20AFE00000900020FFF795FF08BD2DE9FC41FFF759FF8046484801880027081F84B26FF0EF
:20B000000300401880B2042841DBFF254FF6FF76204669460422FFF70AFEBDF800008642C7
:20B020001ED0E8B1C10BC90317D1854215D0C1B23846FFF797FF0D4678B9BDF80220A01ACB
:20B0400007F1885180B2121D92B2FFF7F0FDBDF802003F183F1DBFB214E0BDF8020011E020
:20B06000BDF8020003466FF30E0363B9011D8C4208DA0020FEF7ECF94046FFF724FF0020BA
:20B08000BDE8FC81241A241FA4B2042CC0DAFFF787FF3FB188484FF088513A46FFF7DDFD49
:20B0A000FFF799FF4046FFF70EFF664A507800281CBF0020011C03D1C7F58054391DA0B2B5
:20B0C0005180BDE8FC812DE9FC4104461248068890460D46012269464FF6FF70ADF80000A4
:20B0E00045F40040ADF80200A81987B23846FFF710FFBDF80200012269466FF3DF30ADF814
:20B1000002003846FFF705FFA8104146C2B23046FFF7FFFE02E0C0460248002044F40044CB
:20B12000012238466946ADF80040FFF7F2FEBDF80000012269466FF3DF30ADF800003846D9
:20B14000FFF7E7FEBDE8FC8103B42DE9F0473D4D08AF4FF0000998461646ADF1080DB87848
:20B1600085F801908246FFF751FE071C14D04C4686B1384669460122FFF759FD18F8040034
:20B180009DF80010884205D1641C7F1CE4B2BFB2A642EEDCA6421CD06888F61C4FF6FC740B
:20B1A00040F6FC7134402018814203DAFFF7D2FEFFF71BFF504621464246FFF784FF6878EC
:20B1C0006988002818BF814603D10919091D88B26880484602B0BDE8F04702B07047C046EF
:20B1E000D8010010004003400EB51346ADF802000020ADF804000A468DF800009DE80300FA
:20B20000FFF7A2FF0EBDC046D801001098B50D4C2778002F18BF012013D16088C0F5805020
:20B2200080B2B0F54D7F0BDAFFF794FE00206070FFF7DBFE20B9607800280CBF0127071C50
:20B24000384698BD00480020FFF7E0BF7C4400201CB540F6FC74204669460422FFF7E7FCB3
:20B260000098B0F1FF3F03D1241FA4B2042CF2DA1248241D04801CBD1CB5114C0020042282
:20B28000607069462070FFF7D2FC0098B0F5801F0CD020B9FFF7DCFFFFF7A7FE08E0FFF700
:20B2A0007FFEFFF798FE0420608001E0FFF7D0FF60781CBDFFF7E0BF04E001000248002046
:20B2C000004800200348006801092CBF042000F0030070470040034008B5054B303B1B6812
:20B2E0009B699847014A0021116008BD84046042D801001010B5002A08BF00200AD0401EA8
:20B30000491E11F8014F10F8013F9C4201D1521EF7D1181B10BD0000054908B53039096858
:20B3200049698847014A0021116008BD84046042D801001010B5817921B3891E1AD0491E4C
:20B3400012D0891E0AD0491E18BF01201DD1037A817AC2681846F6F712F810BD027AC168D4
:20B360001046F6F73BF810BD0289C1681046F5F7E4FF10BD84688189827B03692046F5F733
:20B38000B1FF10BD8068F6F786F810BD08B502469079B8B1001F10D0401E09D0401E18BF2E
:20B3A000012012D1107A917AD268F4F713FE08BD107AD168F4F74EFE08BD9068F4F77EFEDB
:20B3C000002008BD9068F4F763FE08BD38B50D46014688790024103818D0C01E11D0401E86
:20B3E0000BD0401E18BF012414D108898B7ACA681946F5F74EF904460CE08868F5F71BFDAF
:20B4000007E00889897AF5F710FD02E0087AF5F709FD2C70204638BD2DE9B04315460246BF
:20B420009779894600243F1F3FD0DFF860820C3F092F06D8DFE807F0332E2B251D1A0510C7
:20B440000D07012436E01089D168F7F7DCFC044630E0F7F73DFD04E0107AD1681269FEF76C
:20B46000F3FC4146087001204D4622E0FFF714F81EE0107AD168148A937C2246FFF7BFF9A2
:20B48000E5E71089917AD268FFF721FADFE7F7F733FDE6E71089917AF7F703FDE1E7107A5C
:20B4A000F4F722FCA9462046DEE79068FFF725FA204628702046BDE8B083012070472DE932
:20B4C000F84308AF3E788146984615460C4606F10C0080B2FEF7B6F8071C16D08020387049
:20B4E00087F8018040F27F637B806849BC803246BD7107F10C00FE7107F10C03BB60FEF720
:20B5000095F848463946FEF796F9BDE8F8832DE9FE43044600250120A688A7798DF80550DE
:20B5200094F802808DF80400311C1BD0491E12D0491E0BD0491E05D0491E15D12046FFF7CC
:20B54000F9FE11E02046FFF721FF0DE0204601A9FFF73CFF08E020460DF1050101AAFFF766
:20B560005BFF01E0FFF7A9FF81462046FEF77FF89DF8040040B19DF8050031463A464B46AD
:20B5800000904046FFF79BFF2846BDE8FE8308B503460022801E012812D9801E0DD0202BD1
:20B5A00010DB602B04DB802B0CDB902B0ADA0AE01846FFF7ADF9024605E0042902D102E012
:20B5C000102900D00222104608BD60B19222B7498271B74B01601422428119888180032347
:20B5E000038100207047022070477CB50D46B6490B68401E144616D0401E08D0401E43D0DC
:20B60000401E3DD0401E2AD0401E19D016E0287A697A0446FFF7BBFF002835D1EA682046C5
:20B62000FFF7E2FD7CBD287A697A0446FFF7AFFF50BBEA682046FFF726FC7CBD01207CBD1B
:20B640004FF6FF70ADF80000F5F7ACFB0222ADF8000069460D482270FDF7E8FF0EE09B68D3
:20B6600000200146024698470423AD492370020A0A72C871060C4E72050E8D7200207CBD8E
:20B68000A868FFF7A2FF7CBD02207CBD3B44002030B512280B461546ADF1140D03D9303802
:20B6A00007280CD953E0DFE800F0AC5252A75252A29B9752918C87827C736E6A66C0DFE8F1
:20B6C00000F03B205551184E480418890446FFF73EF90146A4F2014040B1001F04D0C01ECF
:20B6E00014BF0120042002E0102000E00220287091E0187AF4F761F8039030B3042203A9F7
:20B7000014E04FF6FF741889ADF80840FF2807DA262805D0282803DAF3F781F8ADF8080087
:20B72000BDF80800844210D0022202A97D482A70FDF77CFF00216EE01889262805D0282886
:20B7400003DA5989F3F75EF864E0022163E0012161E01889997ADA68FFF760F95AE0F4F773
:20B7600051F857E09868F3F7C8FF53E09868D968F3F7ECF94EE09868F3F7B1FA4AE0986868
:20B78000F3F779FA46E01889997AF3F763FB41E0187C0090997ADA7A1889DB68F3F7A9FB0C
:20B7A00038E01889997ADA68F3F7E2FA32E01889997AF4F711FA2DE0D8681989F3F759FBCC
:20B7C00028E09868D968F3F7F7FA23E0187A59891A7BF3F713FA1DE0187AF3F768FF19E069
:20B7E000187A597A9A7ADB68F3F72DFF12E0187AD968F3F7DFFE0DE0187AD968F3F74DF8FC
:20B8000008E01869009058690190597A187ADB6800F024FA014605B0084630BD0B4600B5EA
:20B8200001461889ADF1140D1B391BD0891E13D0B1F1260018BF012018D1684619460E22B2
:20B84000FDF782FABDF80800BDF80A10BDF80C20F6F7C2FC002009E0D9681A7C5B7CF4F7BE
:20B8600072FF03E0D9681A7CF4F7A3FF05B000BD0246CB680889511E13D00A390ED0891E78
:20B8800009D0891F05D0891F18BF01200CD1F2F782BCF2F76DBC1946F2F73CBC1946F2F714
:20B8A0002BBC1946F2F7D5BB7047C04601020200B4CB0100122805D10889CB680A7C1946CE
:20B8C000F6F705BD012070476846002010B50446C4F3C21048B1401E1DD0401E16D0401E95
:20B8E0000FD0401E08D0401E01D0012010BD04F07F00FFF77AFE10BD04F07F00FFF7C8FE39
:20B9000010BD04F07F00FFF789FF10BD04F07F00FFF7AEFF10BD04F07F00FFF7CBFF10BDB9
:20B92000344400203B44002042F20702824236DB824200F0E58041F2020282421BDB8242F0
:20B9400000F0EC80A0F21D40002800F0F780A0F2E470002800F0EF80801E00F0EA802A3846
:20B9600000F0E380363800F0DD80A0F29E30002800F0D6804DE0521C801A00F0CD80801FDA
:20B9800000F0C880B0F57F7000F0C180A0F6FC30002800F0B980801E00F0B48039E010327A
:20B9A000824216DB824200F09580083A801A00F0A580401E00F0A080401E00F09980401EE5
:20B9C00000F09280C01E00F08C80401E00F086801FE0521D801A7BD0401E76D0401E6ED0A4
:20B9E000401E6AD04DF6E232801A1F2811D8DFE800F0615E10105A5754504E4B49464341F7
:20BA000010103E103B3733102F291026221F1C101812012070478868CB680A691946F9F721
:20BA2000AABC087A897A00F093BC087AF9F748BD0889F9F758BD087A498900F08DBC087AC0
:20BA400000F08EBC08898B7A8A891946F9F75DBD087A498900F088BC0889C96800F088BC1C
:20BA60000889897A00F088BC088900F089BC087A00F08ABC00F08CBC088900F08DBC88688E
:20BA800000F08EBC00F090BC087A00F091BC00F093BC087A897A00F093BC087A00F094BCAC
:20BAA000886800F095BC8868C96800F095BC087A00F096BC087A00F097BC00F099BC087AA3
:20BAC0004B7A8A7A1946F9F7CDBC087AF9F7D3BC00F092BC8868C96800F092BC0889F9F7A6
:20BAE000ACBC088900F090BC087AC96800F090BC087AC96800F028BC00F022BC00F08CBC95
:20BB000000F08EBC00F090BC8868F9F700BD0889F9F744BD00F0D0BA00F08ABCF9F721BC13
:20BB2000F9F710BD8868F9F7AFBC0889897A00F083BCF9F705BC886800F082BC088900F0EA
:20BB400083BC70472DE9FE430446012000253F218DF80400A679A778A0888DF80550804619
:20BB6000B1EBA82F02D1C8F3C21119B92146FFF7DBFE05E021460DF1050201ABFFF7A6FE52
:20BB800081462046FDF773FD9DF8040040B19DF80500414632464B4600903846FFF78FFCD1
:20BBA0002846BDE8FE83F8B50C46E00BC00308BF002027D028480078FDF7ABFD071C1ED0D1
:20BBC000234D2968012649B1B1F1FF3F06D021480078FDF730FE4FF0FF302860387881382B
:20BBE00005D0401E07D13846FFF791FC02E03846FFF7A8FF064616B13846FDF738FD84F40A
:20BC00000044A0B2F8BD10B50C4601462046491E07D0491E02D0FDF7C3FC10BDF7F74CF8EC
:20BC200010BD1946029B144602462046F5F72AFA10BD10B504460846012C114602D1F5F7B6
:20BC40005DFA10BDFDF7C5FC10BD0349087070476C4600202844002034440020024638B598
:20BC600008461D46411E18BFB1F1030113D101461046F2F7DDFD041C0ED104980599F2F7D1
:20BC8000EBFD2846F2F7F5FDF3F7C6FDF3F7C1FFF8F7DAF800E00224204638BD0EB508210E
:20BCA0008DF804002348ADF800101721ADF802100168684688479DF805000EBD2DE9F84350
:20BCC000074688460A2F02DA1B4D287810B90120BDE8F883174E361D306880478146688854
:20BCE0000124B8F1000F0ED1214603464FF6FF72B9404A40104068807BB170B90020FFF7FC
:20BD0000CDFF044609E018B92046FFF7C7FF68882146B940084380B2688071684846884746
:20BD20002046BDE8F883044800214180012101707047C0467C440020FC47002070B5174C34
:20BD40000546241D20688047134B19685E686D18B5F57A7F0AD34FF47A72B5FBF2F18919FA
:20BD60005960B5FBF2F606FB02F16D1A1D606168884770BD38B50A4C0546206820F002008D
:20BD800020602846FFF7DAFF2846FDF7C3F9206840F00200206038BDF44700207C4400205E
:20BDA00010E000E00EB5082101900E48ADF800100421ADF80210016868468847002814BF6E
:20BDC000002002980EBDFFF7EDBF0EB5082101900548ADF800100521ADF8021001686846C9
:20BDE00088470EBD7C4400207C4400208CB5071C2BD097F820008DF8000097F821308DF8F1
:20BE000001306846F6F7C8FA786A08B10F490160B86A08B10E4901600E4839780170797844
:20BE20004170B9787B688170F9784360C170BA688260FB68C36079694161B9698161F96A92
:20BE4000FA69C1611068FDF70EFB8CBD07BC010033BC01002C46002030B51546ADF1140D5A
:20BE60000822ADF804001C4602913D48ADF8002000220168ADF80220684688479DF80C1030
:20BE800029700499216005B030BD08B50520FDF7DFFA0820ADF800000C20ADF80200304882
:20BEA00001686846884708BD0EB51420FFF78BFF2C490860086814220021FDF7B5FB0020F8
:20BEC000FAF7BCFF0120FCF7A7FE0220FEF713FF0320F6F763FA0420F3F709FF0520F8F73D
:20BEE0006BFA0620F4F7BBFF0720F5F7B5F90820FEF771FE0920FFF7A8FE01AA6B46002183
:20BF00001020FFF7A9FF9DF804100920FDF7A2FD00239DF804101846FDF7A2FD5B1C092B86
:20BF2000F7DB0EBD38B5FFF761FF104B0E495020183B5A1C1033FFF78FFF08B1FFF7A5FF1C
:20BF40000B4C241F606880470546FFF7B3F9FDF7A9FDA16828468847FDF7B5FE38BDC04649
:20BF60007C440020884400200F9A010068470020804400204FF0FF31421E12F8010F491C4A
:20BF80000028FAD108467047F8B506460F4D104F7388002417E0A00000EBC400321851688D
:20BFA0009068D26852B9AF420BD00A7855F822200346491C08461946904701E0FCF7C4FE9F
:20BFC0007388641CA4B2A342E5DCF8BDB8CB0100C0CB01002DE9F041054615F8017B904634
:20BFE0000E461CE0B8F1000F05F101050BD0FF2C09D8022015F8011B401E41EA0424F9D190
:20C0000001E0042C02D315F8011B00E0394630462246FCF7EBFEA61901E006F8010B15F841
:20C02000010B8742F9D115F8014B002CE9D115F8010B2C7800022418D4D1BDE8F081012249
:20C04000FFF7C8BFD0F80320C31D08461946FCF77BBE0000034608461649097849B1021F2D
:20C06000084632F8041F8B4208BF101C02D0401EF7D10020704708B5FFF7ECFF002814BFFD
:20C080008078002008BD10B54FF6FF74844206D0FFF7E0FF68B104800021817010BD05480C
:20C0A000007830B10022091F21F8044F401E8A70FAD110BDCC430020DFF800F0659700107F
:20C0C000DFF800F049980010DFF800F0C9560010DFF800F025950010DFF800F0A198001011
:20C0E000DFF800F0BD980010DFF800F0D9980010DFF800F06D980010DFF800F0F59500108F
:20C10000DFF800F031960010DFF800F05D960010DFF800F0E9940010DFF800F0A194001057
:20C12000DFF800F0D5570010DFF800F0C59B0010DFF800F0E19B0010DFF800F0D989001039
:20C14000DFF800F0EDB40010DFF800F041B50010DFF800F055B50010DFF800F0BD800010A5
:20C16000DFF800F069800010DFF800F06D550010DFF800F0B1AD0010DFF800F015830110C1
:20C18000DFF800F091830110DFF800F0D5580010DFF800F0818C0010DFF800F0DD8A00108D
:20C1A000DFF800F0A18B0010DFF800F0D5700010DFF800F09D580010DFF800F0EDAB001025
:20C1C000DFF800F00DB50010DFF800F035A30010DFF800F021870010DFF800F041870010F9
:20C1E000DFF800F04DD90010DFF800F031860010DFF800F0B9830110DFF800F01987001029
:20C20000DFF800F049550010DFF800F085840110DFF800F0CD840110DFF800F0D184011072
:20C22000DFF800F029840010DFF800F0C9D80010DFF800F0F58B0010DFF800F03DAC0010EB
:20C24000DFF800F0F5D80010DFF800F0F57D0010DFF800F0C9B40010DFF800F08DB5001084
:20C26000DFF800F069B50010DFF800F021B70010DFF800F051B80010DFF800F01DB5001091
:20C28000DFF800F089D10010DFF800F019570010DFF800F061840010DFF800F08D6700109F
:20C2A000DFF800F02D8A0010DFF800F071940010DFF800F0A9AC0010DFF800F0E5730010B9
:20C2C000DFF800F0E1AC0010DFF800F0B5C10010DFF800F0F1860010DFF800F05D92001099
:20C2E000DFF800F0957B0010DFF800F0F5B50010DFF800F0DD930010DFF800F03D930010E8
:20C30000DFF800F0A97C0010DFF800F0557D0010DFF800F0E1910010DFF800F0297F0010B0
:20C32000DFF800F0A1AF0010DFF800F0F5D10010DFF800F0D5840110DFF800F001580010D8
:20C34000DFF800F0F9990010DFF800F0159A0010DFF800F0B5A10010DFF800F009A1001040
:20C36000DFF800F06D9E0010DFF800F0F1A00010DFF800F075A00010DFF800F031A00010DF
:20C38000DFF800F011A00010DFF800F0D19F0010DFF800F0699F0010DFF800F0499F001030
:20C3A000DFF800F00D9F0010DFF800F0ED9E0010DFF800F0CD9E0010DFF800F0AD9E001034
:20C3C000DFF800F08D9E0010DFF800F04D9E0010DFF800F02D9E0010DFF800F0D19D0010B2
:20C3E000DFF800F0459D0010DFF800F0099D0010DFF800F08D9C0010DFF800F0159C00107F
:20C40000DFF800F0F59A0010DFF800F0A19A0010DFF800F0319A0010DFF800F0C9990010C9
:20C42000DFF800F0F5980010DFF800F029980010DFF800F03D970010DFF800F0D195001018
:10C44000DFF800F071950010DFF800F04195001062
:20C45000A37001004B8C01006DAC0100FF23010005FD0000D54301007D0E0100A712010042
:20C47000C1A60100A7BB0100C7BD0100CBBD0100D39501002D960100299601004D94010004
:20C49000C7BD0100CBBD0100BDBC01004596010037980100BD9801002D960100299601007E
:20C4B000A1950100D395010079950100439201007D92010055990100459501005B9301001E
:20C4D0004B930100E9940100819401004D940100ED93010009940100359301005D8701002A
:20C4F00035930100359301003593010035930100618701007787010035930100A18701002E
:20C5100035930100284400202B4400202A4400202C4400202944002084CB01003593010063
:20C530003593010035930100359301003593010035930100359301003593010035930100A3
:20C55000359301003593010035930100359301003593010035930100359301003593010083
:20C57000334C0100158301103D8301106983011091830110974C0100B98301108584011044
:20C59000A9840110C5840110CD840110D1840110D5840110F984011049850110518501106D
:20C5B000E185011069860110756901107969011085690110996A0110F56A0110796B01109A
:20C5D000296C0110456C0110796C0110056D0110296D0110A16D0110C96D01108D6E011051
:20C5F000A16E0110D56E011065730110FD7401107D7601103978011095780110F5780110EA
:20C6100071770110ED750110098B0110998A0110C58A0110198A0110358A0110DD8A00106A
:20C63000A18B00102D8A001025950010F1A0001009A10010799D00100B550100AD9D0010E1
:20C65000D19D0010E754010011A00010699F0010ED9E001095A00010D1A00010F19F001036
:20C67000AD9E0010CD9E00108D9E0010B5A10010459D001095A1001075A0001031A00010F5
:20C69000C1540100B19F00100D9F00104D9E0010819F00102D9E0010D19F0010D59C001051
:20C6B000499F00106D9E0010099D0010F58B0010319600105D960010159A0010F9990010D6
:20C6D000B15401003593010035930100F59A0010E19B0010C59B0010519B0010F59800107E
:20C6F00005540100A19A0010299800103B540100159C0010C999001077540100319A00104A
:20C71000A1980010D99800106D9800100F5501003593010049980010359301003593010079
:20C73000BD980010359301008D9C0010655401001B4F010065970010635301003D970010B6
:20C7500045550100419500109D550100D195001041530100CDD70010818C0010598C001084
:20C77000318D0010E9940010F5950010719500100553010089520100A19400103957001084
:20C79000818D001035930100195700108D6700103593010035930100AD8E00103593010078
:20C7B00035930100D5580010257A01007194001021790100A7770100395A001005900010AC
:20C7D00039B60010F5B50010D766010051B800106966010021B7001055B5001041B5001061
:20C7F00069B500100DB500101DB50010C9B400108DB50010EDB4001025700010B17D0100E3
:20C810007D6B0010597D0100816B0010856B0010A170001035930100817701001D700010BD
:20C83000ADA2001021700010496F0010C5750100E976010065760100897D0100596B0010CE
:20C8500009710010ED6F0010996F001059A20010D5700010FD6E0010016E0010C56B001020
:20C87000F96E001043740100B1740100D96A001001A20010856E0010DD6B00107974010004
:20C8900011A200103D930010DD930010B7730100717301005D920010D55700103D6E01006E
:20C8B000B9570010A3700100015800106D550010F5570010D5A1001005610010C956001072
:20C8D000A1590010795800109D580010F3730100AF4E0100E9580010E19100103593010057
:20C8F000CB7C0100CD740100A157001065570010CB710100314D0100C97B0100895F0010D1
:20C91000B97A0100E956001035930100359301002D61001035930100495500100B7501005C
:20C93000D9D20010A3870100F5D1001033880100D1870100C787010029D2001089D1001052
:20C950006DD3001013880100637F010051CD0010335701006F560100B75A0100E77E010001
:20C97000359301004DD90010B5C1001069620100E97200101B5D01003186001041870010D3
:20C99000218700103593010035930100F55D0100359301000D560100E5720010ED720010E7
:20C9B000BD800010359301003593010035930100359301003593010019870010F1860010F6
:20C9D00039A9001095A80010EDAB00103593010035930100A9AC0010359301003DAC0010A7
:20C9F000A77E0100AD5E01005D5E0100BD620100E1AC001035930100997F0100417F0100D9
:20CA1000556201003593010035930100C5640100F55B0100A57E010035930100359301008B
:20CA30003593010035930100F1890010D9890010A1AF001035930100B1AD001065860010C6
:20CA50007D6201003593010035930100B15C0100F1720010359301003D480100CD84010032
:20CA7000314C010041AE001045AE001049AE00106184001029840010315E01003593010014
:20CA90009D610100E564010035930100C97F010035A30010B57E0100E1720010096301003F
:20CAB0000B620100E5730010B1AE001035930100D94A010035930100957B00103593010082
:20CAD0000D5C0100359301003593010035930100359301002F82010035930100557D00105B
:20CAF000FF4B0100F57D00103593010035930100359301006F5C0100A97C00107563010024
:20CB1000698000103593010035930100297F00105D800100C9D80010F5D80010359301008D
:18CB3000E7630100E1D90010CF65010035930100359301003593010048
:20CB480002000000FC11010002000000001201000061310058CB0100010000000000D0021F
:20CB68000A0500000000000002010000000000001000000000000000EC000021000000007E
:20CB88000000000080CB010064CB01000000000068CB01006CCB010070CB010074CB010029
:0ECBA80078CB01007CCB01002C460020C0861B
:20CBB8003FC0010045C00100D0CB01009044002028D00100484300200100000050040000CE
:20CBD80000000000000000000000000000000000000000000000000000000000FF0000003E
:20CBF8000000000000000000000000000000B4000028002800283075A000A000A000A000CC
:20CC180000080008E001F00010001000100010001000100050005000500010001000D007D4
:20CC38000000000000000F0001000500307507001000010081FF0000000001000000000089
:20CC58000000000000000000FFFF0000000000000000000000000000FF00000000000000BF
:20CC780000000000000000008FF8000019FA0000ABF9000037FC000000FF0000000000002C
:20CC980000000000020202FF5000A0000000E803000000000000000000000000000000009C
:20CCB80000000000000000000000000002000000041201000100000048CB0100020000002C
:20CCD800101201000100000054450020020000002C12010001000000644500200200000052
:20CCF800101201000100000055450020020000003012010001000000604500200200000031
:20CD1800101201000100000056450020020000003C1201000100000058450020010000000C
:20CD380000000000FFFF170002000000041201000100000050CB0100000000FF0000000091
:20CD5800313F0100C94101002B410100633E010002000000000000000000000003081B0008
:20CD7800000000005CCB010000000000000000000000000000000000340800000000000037
:20CD980000000000000000000000000000000000000000000000000000000000000000007B
:20CDB80000000000010000008967010000000000FD68010000000000C40900000100000035
:20CDD800518801000000000000000000000000000000000000000000000000000000000061
:20CDF80000000000000000000000000000000000000000000000000000000000000000001B
:20CE18000000000000000000000000000000000000000000000000000000000000000000FA
:20CE38000000000000000000000000000000000000000000000000000000000000000000DA
:20CE58000000000000000000000000000000000000000000000000000000000000000000BA
:20CE7800000000000000000000000000000000000000000000000000000100004F940100B5
:20CE9800FF000000000000000000000000000000000000000000000000000000000000007B
:20CEB8000000000000000000FF00000000000000000000000000000000000000000000005B
:20CED80000000000000000000000000000000000000000000000000000000000000000003A
:20CEF80000000000000000000000000000000000000000000000000000000000000000001A
:20CF18000000000000000000000000000000000000000000000000000000000000000000F9
:20CF380000000000000000000000000000000000010000000001000000000005771000004B
:20CF58000A00E80300000000000000000000000000000000000000000000000000000000C4
:20CF7800000000000000000000000000000000000000000000000000000000000000000099
:20CF9800000000000000000000000000000000000000000000000000000000000000000079
:20CFB800000000000000000000000000000000000000000000000000000000000000000059
:20CFD800000000000000000000000000000000000000000000000000000000000000000039
:20CFF800000000000000000000000000000000000000000000000000000000000000000019
:1BD01800000000000000000000000000000000000001010001440001000000B5
:20E00000FF0000000000000000000000000000000000000000000000000000000000000001
:20E020000000000000000000000000000000000000000000000000000000000000000000E0
:20E040000000000000000000000000000000000000000000000000000000000000000000C0
:20E060000000000000000000000000000000000000000000000000000000000000000000A0
:20E08000000000000000000000000000000000000000000000000000000000000000000080
:00000001FF
